:020000040800F2
:10000000005000201D2800087125000877250008F1
:100010007D250008832500088925000800000000D0
:100020000000000000000000000000008F25000814
:100030009B25000800000000A7250008B325000844
:10004000652800086528000865280008652800085C
:10005000652800086528000865280008652800084C
:10006000652800086528000865280008C1250008E3
:100070006528000865280008E12500080126000819
:10008000652800086528000865280008652800081C
:100090006528000865280008652800082126000852
:1000A0006528000841260008652800086528000822
:1000B00061260008652800086528000865280008F2
:1000C00065280008652800086528000865280008DC
:1000D00065280008812600086528000865280008B2
:1000E000A126000865280008652800080000000017
:1000F0000000000000000000000000000000000000
:0C01000000000000000000005FF808F1A3
:10010C0010B5054C237833B9044B13B10448AFF345
:10011C0000800123237010BD70040020000000003B
:10012C006084000808B5034B1BB103490348AFF3C7
:10013C00008008BD000000007404002060840008EA
:10014C0080B485B000AF78600023FB6016E0FB68DC
:10015C0003F5003301339B027A689A420BD2FB6899
:10016C0003F500339B027A689A4204D3FB6803F5CB
:10017C0000339B0206E0FB680133FB60FB687F2BBE
:10018C00E5DD002318461437BD4680BC70470000DF
:10019C00B0B58AB000AFF860B9601346FB8000239D
:1001AC007B6203F043FCF868FFF7CAFF3862FB88F8
:1001BC009B001A46FB681344FB61F869FFF7C0FF0C
:1001CC00B861234B7B4400221A60224B7B443A6A71
:1001DC009A60BA693B6AD31A9B0A5A1C1E4B7B4421
:1001EC00DA6007F1140319461C4B7B44184603F0E4
:1001FC0023FD0346002B1FD003F04EFC034622E0E8
:10020C007B6A9B00BA6813441B6800221C46154687
:10021C0022462B46F968022003F090FB0346002B84
:10022C0006D1FB680433FB607B6A01337B6203E01D
:10023C0003F032FC034606E0FB887A6A9A42DFDB65
:10024C0003F01AFC002318462837BD46B0BD00BF8A
:10025C00B8020018B00200189E0200189202001892
:10026C0090B587B000AF9B4C7C44002000F030FB75
:10027C00002001F085FD0023FB75C7E0FB7D964A4D
:10028C00A258D35C012B2CD1FB7D01339BB21A46B7
:10029C00520013449B009BB21946002001F0F4FD60
:1002AC00FB7D5A1C3B468D497944184606F07AFF73
:1002BC0001228B4BE35819468A4B7B44184601F0BC
:1002CC0093FE38460122864BE358194601F08CFE0A
:1002DC000122834BE3581946834B7B44184601F0AB
:1002EC0083FEFB7D7C4AA25813445B79012B19D108
:1002FC00FB7D9BB21A46520013449B009BB21946DD
:10030C00282001F0C1FD0122754BE3581946774BAB
:10031C007B44184601F068FEFB7D6F4AA2581344DB
:10032C0000225A71FB7D6C4AA2581344DB7B012BD3
:10033C0019D1FB7D9BB21A46520013449B009BB211
:10034C001946322001F0A0FD0122654BE3581946F5
:10035C00674B7B44184601F047FEFB7D5E4AA25872
:10036C0013440022DA73FB7D5B4AA25813441B7DB5
:10037C00062B48D9FB7D9BB21A46520013449B00B6
:10038C009BB219463C2001F07FFDFB7D524AA258DE
:10039C0013441B7D1A463B4656497944184606F0D1
:1003AC0001FF384601224E4BE358194601F01CFE62
:1003BC0001224B4BE35819464F4B7B44184601F036
:1003CC0013FEFB7D444AA25813441B7D1A463B4640
:1003DC004A497944184606F0E5FE38460122404B5E
:1003EC00E358194601F000FE01223D4BE358194633
:1003FC00434B7B44184601F0F7FDFB7D364AA2586F
:10040C00134400221A75FB7D0133FB75FB7D042B15
:10041C007FF634AF0021002001F036FD0122304B75
:10042C00E3581946374B7B44184601F0DDFD2A4B47
:10043C00E3581B7F012B0CD100211E2001F024FD61
:10044C000122274BE35819462F4B7B44184601F0E9
:10045C00CBFD00212D2001F017FD1F4BE3589B7E97
:10046C001A463B4629497944184606F09BFE012260
:10047C001B4BE3581946264B7B44184601F0B4FD40
:10048C0038460122164BE358194601F0ADFD012206
:10049C00134BE35819461F4B7B44184601F0A4FD3F
:1004AC000D4BE3589B7E1A463B461B497944184634
:1004BC0006F078FE38460122094BE358194601F044
:1004CC0093FD01F02DFC322002F040FA00BF1C37E6
:1004DC00BD4690BD1401001888000000C0810000CA
:1004EC0098000000B28100009A8100006881000031
:1004FC002A810000CE800000C6800000968000009B
:10050C0092800000668000004A800000028000009B
:10051C0020800000E87F0000BC7F000090B587B011
:10052C0000AF2F4C7C44002000F0D2F92D4B7B44C3
:10053C00184606F02FFE002001F022FC00210020BE
:10054C0001F0A2FC284BE3581B78012B0DD10122A2
:10055C00264BE3581946264B7B44184601F044FDC4
:10056C00214BE35800221A7030E0224BE3581B78E1
:10057C00012B0DD101221D4BE35819461E4B7B4418
:10058C00184601F031FD1B4BE35800221A701DE098
:10059C000122164BE3581946184B7B44184601F0C0
:1005AC0023FD1E21282001F06FFC154BE358DB7F47
:1005BC001A463B1D13497944184606F0F3FD381DC5
:1005CC0001220A4BE358194601F00EFD01F0A8FB7D
:1005DC00012002F0BBF900BF1C37BD4690BD00BF27
:1005EC0058FEFF17727F00003C000000B4000000B2
:1005FC005C7F0000B8000000427F00002E7F0000EE
:10060C0088000000B27E000098B500AF364C7C44E8
:10061C004FF48061324803F04DFD0346002B0CBFB4
:10062C0001230023DBB21A46304BE3581A704FF407
:10063C0000612B4803F03EFD0346002B0CBF012349
:10064C000023DBB21A46294BE3585A704FF4805101
:10065C00234803F02FFD0346002B0CBF012300237E
:10066C00DBB21A46214BE3589A704FF400511C48E8
:10067C0003F020FD0346002B0CBF01230023DBB24B
:10068C001A461A4BE358DA704FF48041144803F0C1
:10069C0011FD0346002B0CBF01230023DBB21A46CD
:1006AC00124BE3581A714FF480710E4803F002FD9F
:1006BC000346002B0CBF01230023DBB21A460B4B65
:1006CC00E3581A7700F0E8FF094BE3581B68DAB2DD
:1006DC00064BE3589A76012002F038F900BF98BD1A
:1006EC00000C0140000801406EFDFF17880000005F
:1006FC009400000080B584B000AF0346FB7100236A
:10070C00FB73FB79032B39D802A252F823301A441D
:10071C00104700BF270000003D0000005300000000
:10072C0011000000012220211B4803F0DAFC0122F9
:10073C004021194803F0D5FC28E00022202116485E
:10074C0003F0CFFC00224021134803F0CAFC1DE04B
:10075C0001222021104803F0C4FC002240210E4845
:10076C0003F0BFFC12E0002220210B4803F0B9FC7F
:10077C0001224021084803F0B4FC07E00123FB737D
:10078C00064B7B44184606F005FD00BFFB7B184664
:10079C001037BD4680BD00BF000801404E7D0000F3
:1007AC0080B400AFBFF34F8F00BF064BDB6803F480
:1007BC00E0620449044B1343CB60BFF34F8F00BF7F
:1007CC0000BFFDE700ED00E00400FA0580B483B043
:1007DC0000AF78604FF06043D3F8803E03F0010324
:1007EC00002B13D04FF06043D3F8003E03F001030D
:1007FC00002B0BD000E000BF4FF060431B68002BB8
:10080C00F9D04FF060437A68D2B21A707B68184600
:10081C000C37BD4680BC704780B586B000AFF86021
:10082C00B9607A6000237B6109E0BB685A1CBA602E
:10083C001B781846FFF7CAFF7B6901337B617A6925
:10084C007B689A42F1DB7B6818461837BD4680BD41
:10085C0090B583B000AF0346FB710A4C7C440A4B45
:10086C007B44184606F096FC084BE358FA791A704C
:10087C00064BE3581B78184600F02AF800BF0C37DB
:10088C00BD4690BD20FBFF178C7C000008000000CB
:10089C0090B583B000AF0346FB710A4C7C440A4B05
:1008AC007B44184606F076FC084BE358FA791A702C
:1008BC00064BE3581B78184600F00AF800BF0C37BB
:1008CC00BD4690BDE0FAFF17647C000008000000F4
:1008DC0080B582B000AF0346FB71FB79032B35D892
:1008EC0002A252F823301A44104700BF1100000036
:1008FC0025000000390000004D000000252002F00A
:10090C0060FD282002F05DFD172002F05AFD1EE06C
:10091C00252002F056FD282002F045FD172002F09C
:10092C0042FD14E0252002F03EFD282002F049FD96
:10093C00172002F046FD0AE0252002F034FD2820A5
:10094C0002F031FD172002F02EFD00E000BF00BFC9
:10095C000837BD4680BD00BF80B500AF044B7B445B
:10096C00184606F017FC012001F0F0FF00BF80BD17
:10097C00BE7B000080B500AF012001F0E7FF00BF97
:10098C0080BD80B500AF012001F0E0FF00BF80BD4D
:10099C0080B500AF044B7B44184606F0FBFB0120EE
:1009AC0001F0D4FF00BF80BDC27B000080B500AF5A
:1009BC00012001F0CBFF00BF80BD000090B585B0D9
:1009CC0000AF78600B46FB70224C7C44224B7B447E
:1009DC00184606F0DFFB4FF4FA7001F0B7FF002366
:1009EC00FB732EE0FB7B1D4AA258D25CFB7B796823
:1009FC000B441B789A4221D0194BE35800221A70F1
:100A0C00184B7B44184606F0C5FB0023BB600DE079
:100A1C00124BE258BB6813441B781946124B7B44AB
:100A2C00184606F031FBBB680133BB60BB68042B76
:100A3C00EEDD032000F01AF8012307E0FB7B013305
:100A4C00FB73FA7BFB789A42CCD3002318461437FD
:100A5C00BD4690BDB2F9FF179A7B0000C0000000A4
:100A6C005C0000007E7B00007A7B000080B582B0C9
:100A7C0000AF0346FB71FB79013B062B54D802A255
:100A8C0052F823301A4410471D00000045000000A6
:100A9C008D00000059000000310000006D000000C6
:100AAC0081000000244B7B44184606F073FBFB7955
:100ABC00184600F04FF838E0204B7B44184606F0FF
:100ACC0069FBFB79184600F045F82EE01C4B7B4483
:100ADC00184606F05FFBFB79184600F03BF824E063
:100AEC00184B7B44184606F055FBFB79184600F072
:100AFC0031F81AE0144B7B44184606F04BFBFB799B
:100B0C00184600F027F810E0104B7B44184606F00E
:100B1C0041FB0AE00E4B7B44184606F03BFBFB798D
:100B2C00184600F017F800E000BF012001F00EFF9E
:100B3C0000BF0837BD4680BD0E7B00002E7B000039
:100B4C004A7B00005E7B0000F27A0000667B0000AE
:100B5C00D27A000080B584B000AF0346FB7100234D
:100B6C00FB6008E000F0FAFF4FF4C87001F0EEFEF5
:100B7C00FB680133FB60FB795B00FA689A42F1DB9E
:100B8C004FF4FA7001F0E2FE01F03CFEFFF708FEB4
:100B9C0090B585B000AFF860B9601346FB71284C76
:100BAC007C44284BE358DB7F002B2ED0FB79194675
:100BBC00F86800F04BF80346012B3BD1F86800F0C5
:100BCC0089F80346012B35D11F4BE358DB781A46C5
:100BDC001C4BE358134401225A711B4BE358DB782E
:100BEC001946194BE3581A79164BE3580B44DA7330
:100BFC00154BE358DB781946134BE3585A79114BD4
:100C0C00E3580B441A75092315E00E4BE358DB7FB0
:100C1C00002B0FD1FB791946B86800F017F8034682
:100C2C00012B07D1B86800F055F80346012B01D110
:100C3C00082300E00B2318461437BD4690BD00BFB7
:100C4C00DCF7FF1788000000C000000090B585B0ED
:100C5C0000AF78600B46FB701A4C7C440023FB738E
:100C6C0027E0FB7B184AA258D25CFB7B79680B44CB
:100C7C001B789A421AD0154B7B44184606F08AFA18
:100C8C000023BB600DE0104BE258BB6813441B788B
:100C9C0019460F4B7B44184606F0F6F9BB68013336
:100CAC00BB60BB680F2BEEDD002307E0FB7B013341
:100CBC00FB73FA7BFB789A42D3D301231846143783
:100CCC00BD4690BD22F7FF17C00000000879000058
:100CDC000479000080B582B000AF78600B4B7B4488
:100CEC000B4A9A58D278052A0AD9094A9B58DB78BC
:100CFC001946084B7B44184606F0C6F9002300E061
:100D0C00012318460837BD4680BD00BF9EF6FF176D
:100D1C00C0000000A879000098B500AF0D4C7C44D1
:100D2C000D4B7B44184606F035FA01220B4BE35869
:100D3C0019460648FFF72CFA4FF40051044803F00B
:100D4C00E8F9C82001F002FEF6E700BF1000010828
:100D5C00001001405EF6FF17B6790000400000005D
:100D6C0098B500AF2E4C7C4401F078FD00F060F893
:100D7C0000F060FA00F030FA00F0F6F900F0F6F846
:100D8C0000F0A6F800F030F900F090F9254BE3588C
:100D9C001B68254AA2589B01134404331B689847CF
:100DAC00204BE3581B68204AA2589B0113441B7824
:100DBC001846FFF74DFD1B4BE3581B681A4AA25807
:100DCC009B0113440C331B689847164BE3581B6864
:100DDC00154AA2589B01134401331B781846FFF7A0
:100DEC0057FD104BE3581B680F4AA2589B01134444
:100DFC0008331B68984702460C4BE3581A60094BA2
:100E0C00E3581968094BE3581A68074BE358090172
:100E1C000A44043253F82220024BE3581A60B5E717
:100E2C0016F6FF17280000006C0000002C000000D4
:100E3C0080B594B000AF07F1280328220021184692
:100E4C0006F01AF907F1140300221A605A609A602E
:100E5C00DA601A613B1D00221A605A609A60DA60EF
:100E6C000223BB620123BB631023FB6300237B645F
:100E7C0007F12803184603F09DFF0346002B01D011
:100E8C0000F078FE0F237B610023BB610023FB6124
:100E9C0000233B6200237B6207F1140300211846F8
:100EAC0004F00AFA0346002B01D000F063FE022383
:100EBC007B600023FB603B1D184604F0ABFB034634
:100ECC00002B01D000F056FE00BF5037BD4680BD50
:100EDC0090B585B000AF234C7C443B1D00221A60BA
:100EEC005A609A60204BE3581D4A1A601E4BE35817
:100EFC0000229A601C4BE35800221A731A4BE358D9
:100F0C0000221A75184BE3584FF46022DA61164B25
:100F1C00E35800225A60144BE35801221A61124B19
:100F2C00E358184601F056FD0346002B01D000F0A3
:100F3C0021FE02237B600123BB600723FB603B1D6A
:100F4C001946094BE358184601F012FF0346002BD3
:100F5C0001D000F00FFE00BF1437BD4690BD00BF9E
:100F6C0000240140A4F4FF175800000080B500AF26
:100F7C001B4B7B441B4A9A5817491160194A9A58C3
:100F8C0016495160174A9A5800219160154A9A588F
:100F9C000021D160134A9A584FF480411161114AD3
:100FAC009A58002151610F4A9A58002191610D4ABB
:100FBC009A580021D1610B4A9A5800211162094AB2
:100FCC009B58184603F0D6F80346002B01D000F0CE
:100FDC00D1FD00BF80BD00BF00540040801A060048
:100FEC000AF4FF171400000090B587B000AF2D4C29
:100FFC007C4407F1080300221A605A609A60DA6098
:10100C003B4600221A605A60274BE358244A1A6068
:10101C00254BE35843F698225A60234BE3580022A1
:10102C009A60214BE35843F69822DA601E4BE35842
:10103C0000221A611C4BE35800225A611A4BE358E8
:10104C0000229A61184BE358184604F099FB0346AA
:10105C00002B01D000F08EFD4FF48053BB6007F1E4
:10106C0008031946104BE358184604F061FD03467B
:10107C00002B01D000F07EFD00233B6000237B6041
:10108C003B461946084BE358184604F035FF034617
:10109C00002B01D000F06EFD00BF1C37BD4690BD8B
:1010AC00002C01408CF3FF179000000090B587B026
:1010BC0000AF2B4C7C4407F1080300221A605A60E5
:1010CC009A60DA603B4600221A605A60254BE3585E
:1010DC004FF080421A60234BE3584FF4FA525A6097
:1010EC00204BE35800229A601E4BE3584FF47A725F
:1010FC00DA601C4BE35800221A611A4BE3580022A9
:10110C009A61184BE358184604F03AFB0346002B3F
:10111C0001D000F02FFD4FF48053BB6007F10803A2
:10112C001946104BE358184604F002FD0346002BF9
:10113C0001D000F01FFD00233B6000237B603B4689
:10114C001946084BE358184604F0D6FE0346002B0C
:10115C0001D000F00FFD00BF1C37BD4690BD00BF95
:10116C00C8F2FF17A000000080B500AF184B7B44FD
:10117C00184A9A5815491160164A9A584FF4165144
:10118C005160144A9A5800219160124A9A580021D1
:10119C00D160104A9A58002111610E4A9A580C21BC
:1011AC0051610C4A9A58002191610A4A9A580021BF
:1011BC00D161084A9B58184604F00EFF0346002BD9
:1011CC0001D000F0D7FC00BF80BD00BF003801404B
:1011DC000EF2FF176400000080B582B000AF144B14
:1011EC005B69134A43F001035361114B5B6903F0D4
:1011FC0001037B607B68002200210B2002F0B7F812
:10120C000B2002F0D0F8002200210E2002F0AFF8E3
:10121C000E2002F0C8F8002200210F2002F0A7F8DF
:10122C000F2002F0C0F800BF0837BD4680BD00BFDC
:10123C000010024080B588B000AF07F11003002207
:10124C001A605A609A60DA60494B9B69484A43F0CD
:10125C0010039361464B9B6903F01003FB60FB6822
:10126C00434B9B69424A43F004039361404B9B6997
:10127C0003F00403BB60BB683D4B9B693C4A43F0E5
:10128C00080393613A4B9B6903F008037B607B680E
:10129C0000224FF42041374802F023FF0022602146
:1012AC00354802F01EFF4FF420433B6101237B6164
:1012BC000023BB610223FB6107F1100319462D4883
:1012CC0002F072FD60233B6101237B610023BB6153
:1012DC000223FB6107F110031946274802F064FD55
:1012EC0080233B61254B7B610023BB6107F110031D
:1012FC001946214802F058FD4FF4F8433B61204B4E
:10130C007B610123BB6107F1100319461D4802F0F4
:10131C004BFD4FF402433B611B4B7B610123BB61D3
:10132C0007F110031946174802F03EFD4FF4807385
:10133C003B61134B7B610123BB6107F11003194621
:10134C000D4802F031FD00220021172002F00FF8A9
:10135C00172002F028F800220021282002F007F8BC
:10136C00282002F020F800BF2037BD4680BD00BF0A
:10137C000010024000100140000801400000111054
:10138C0000003110000C01400000211098B500AF96
:10139C00424C7C44424B7B44184605F0FBFE022039
:1013AC00FFF796FA00224FF400513B4802F099FEE9
:1013BC000320FFF79FF90346002B02D00120FFF713
:1013CC0055FB4FF47A7001F0C1FA0622354BE35805
:1013DC001946354BE358184604F04EFE4FF4FA709C
:1013EC0001F0B4FA0322314BE35819462E4BE35863
:1013FC00184604F041FE2E4BE3581B789BB21A465C
:10140C002C4BE3581946284BE358184604F0A6FE1B
:10141C00274BE3581B781946224BE3581846FFF725
:10142C00CDFA0346002B02D00220FFF71FFB204B06
:10143C00E35806221A7001224FF40041164802F0BC
:10144C0050FE4FF47A7001F081FA00F099FB44F6EB
:10145C002063012278211848205803F0CDF8034668
:10146C00002B03D00420FFF701FB13E0134BE358D0
:10147C00134AA2581A60FFF7C7F80220FFF73AF98F
:10148C000320FFF725FA0F4BE3580B221A700120AB
:10149C0001F05CFA98BD00BF00100140EAEFFF17A5
:1014AC0052730000A8000000640000004800000017
:1014BC00BC000000C0000000140000007000000020
:1014CC00C40000005C00000090B583B000AF594C24
:1014DC007C44594B7B44184605F05CFE574BE35853
:1014EC001B78022B07D0022B00F38A80002B33D001
:1014FC00012B09D084E0524B7B44184605F04AFE80
:10150C000520FFF7B3FA84E04E4BE3581B78002B11
:10151C0007D14D4B7B44184605F03CFE0620FFF7E7
:10152C00A5FA0120FFF7E6F80A2001F00FFA0622CF
:10153C00464BE3581946464BE358184604F09CFDBD
:10154C00642001F003FA434BE3582422DA773B4B37
:10155C00E35802221A705CE03F4BE3581B78002BD7
:10156C0007D13E4B7B44184605F014FE0620FFF7CE
:10157C007DFA384BE3581B7F002B57D00120FFF727
:10158C00B9F80A2001F0E2F9354BE35800221A7140
:10159C000023FB711CE00123BB71FB792D4AA2587F
:1015AC00D35C012B11D197F90620FB79013302FA98
:1015BC0003F3BB712A4BE3581B795AB2BB79134323
:1015CC005BB2DAB2264BE3581A71FB790133FB712B
:1015DC00FB79042BDFD90622214BE35819461C4B0F
:1015EC00E358184604F048FD642001F0AFF9194B9C
:1015FC00E3580622DA77114BE35802221A7008E0FE
:10160C000520FFF733FA174B7B44184605F0C2FD53
:10161C0000BF154BE358154AA2581A60144BE358F7
:10162C0009221A70012001F091F900E000BF0C377B
:10163C00BD4690BDACEEFF17247200007800000090
:10164C0010720000B8000000107200007C00000056
:10165C0064000000880000003C000000C071000025
:10166C00CC0000001C710000700000003000000075
:10167C005C00000098B500AF054C7C44012001F0E3
:10168C0065F9044BE3581B68984700BF98BD00BF31
:10169C0002EDFF177000000098B500AF134C7C44AE
:1016AC00134B7B44184605F075FD0222114BE35891
:1016BC001946114BE358184601F064FA322001F038
:1016CC0045F90E4BE3581B68322B04D80B4BE358EF
:1016DC001B68092B07D80A4B7B44184605F05AFDAA
:1016EC000720FFF7C3F900BF98BD00BFDEECFF1762
:1016FC0096700000D000000058000000940000001C
:10170C007070000098B500AF0E4C7C440E4B7B44BF
:10171C00184605F03FFD0D4BE358184604F080F8D1
:10172C0001F03CF90121012003F0F6FA01F044F933
:10173C00064BE358184604F0C5F8012001F006F9F1
:10174C0000BF98BD72ECFF174A70000090000000BB
:10175C0098B500AF044C7C44012001F0F7F8034B22
:10176C00E3581B78184698BD26ECFF175C00000068
:10177C0080B500AF144B7B44184605F00BFD00F010
:10178C0058FC00224FF400410E4802F0AAFC01F074
:10179C0005F90121012003F0DBFA01F00DF901221A
:1017AC004FF40041074802F09CFCAF220021782046
:1017BC0000F0C8FC00F0E4F94FF47A7001F0C6F8C0
:1017CC0000BF80BD00100140EE6F000098B500AF67
:1017DC00344C7C44344B7B44184605F0DBFC334BD7
:1017EC00E3581B78052B17D8012001F0AFF84FF404
:1017FC007A7001F0ABF82E4BE358DB7F013BDAB289
:10180C002B4BE358DA77294BE3581B780133DAB2C8
:10181C00264BE3581A7032E00020FEF76BFF254B85
:10182C00E358184603F0FCFF01F0B8F80121012041
:10183C0003F072FA01F0C0F81F4B7B44184605F018
:10184C00A9FC1E4BE3581B78012B18D1194BE358FC
:10185C00184604F037F8164BE358DB7F013BDAB23D
:10186C00134BE358DA77114BE3581B780133DAB298
:10187C000E4BE3581A70114BE35800221A700C4BA4
:10188C00E358DB7F002B0BD10320FEF733FF0C4B0F
:10189C00E3580B221A700B4BE3580B4AA2581A60F0
:1018AC0000BF98BDAAEBFF179E6F0000440000001C
:1018BC0088000000A0000000466F0000200000001F
:1018CC005C00000070000000C400000080B500AF98
:1018DC00064B7B4403220649595806481B581846A8
:1018EC00FFF756F90346184680BD00BFAAEAFF175A
:1018FC000C0000008400000090B583B000AF78604D
:10190C000B467B80184C7C44184B7B44184605F0E6
:10191C0041FC7B681B68134A93421ED1144BE3585D
:10192C0001221A70134BE35802221A70124BE3581F
:10193C001B789BB21A46114BE3581946104BE358CF
:10194C00184604F00BFC0F4BE3581B681A680D4B40
:10195C00E3581B6822F004021A6000BF0C37BD4626
:10196C0090BD00BF0038014076EAFF178E6E000074
:10197C009C0000005C000000BC000000C0000000E7
:10198C00640000006000000090B583B000AF034617
:10199C00FB80324C7C44324B7B44184605F0FAFBFE
:1019AC00FB88B3F5806F13D0FB88B3F5006F0FD0B5
:1019BC00FB88B3F5805F0BD0FB88B3F5005F07D0D5
:1019CC00FB88B3F5804F03D0FB88B3F5807F08D13B
:1019DC00244BE35801221A70234BE35801221A704E
:1019EC0038E0FB88B3F5004F18D11E4BE3580522A5
:1019FC001A701D4BE35801221A701C4BE35801223C
:101A0C001A701B4BE35801221A701A4BE358002230
:101A1C001A70194BE35800221A701BE0FB88B3F5BF
:101A2C00007F17D10F4BE35804221A700E4BE3586A
:101A3C0001221A70114BE35801221A700E4BE35815
:101A4C0001221A700E4BE35801221A700D4BE35809
:101A5C0000221A7000BF0C37BD4690BDE8E9FF1795
:101A6C001C6E00005C0000009C0000003C000000AC
:101A7C008C0000004400000078000000B80000005A
:101A8C00740000001800000080B483B000AF7860D0
:101A9C000D4B7B447A68126809498A420BD10B4A78
:101AAC009A5812880749A1FB0212920992B2114668
:101ABC00074A9B58196000BF0C37BD4680BC704765
:101ACC0000240140A38B2EBAEAE8FF17D0000000D7
:101ADC009400000080B483B000AF7860194B7B4455
:101AEC007A68126816498A420BD1174A9A58012112
:101AFC001170164A9A5801211170154A9A580721EB
:101B0C0011707A681268B2F1804F14D10E4A9A584B
:101B1C00012111700F4A9A58012111700C4A9A58E0
:101B2C00092111700C4A9A58D27F002A03D1084A15
:101B3C009B580B221A7000BF0C37BD4680BC7047F7
:101B4C00002C01409EE8FF179C0000004C00000098
:101B5C005C000000200000008800000080B500AF91
:101B6C004FF40051024802F0D4FA00BF80BD00BF10
:101B7C000010014080B400AF72B600BFFEE7000059
:101B8C0090B583B000AF614C7C4400F05BFA44F636
:101B9C002063012278215E48205802F02DFD034677
:101BAC00002B01D00023ACE040F6C4137B6002E0B4
:101BBC007B68013B7B607B68002BF9D1AE22002156
:101BCC00782000F0BFFA20220021782000F0BAFA29
:101BDC0010220021782000F0B5FAB02200217820E4
:101BEC0000F0B0FAC8220021782000F0ABFA0022F5
:101BFC000021782000F0A6FA10220021782000F0B5
:101C0C00A1FA40220021782000F09CFA81220021C8
:101C1C00782000F097FAFF220021782000F092FA49
:101C2C00A1220021782000F08DFAA6220021782034
:101C3C0000F088FAA8220021782000F083FA3F22D5
:101C4C000021782000F07EFAA4220021782000F0F8
:101C5C0079FAD3220021782000F074FA00220021B6
:101C6C00782000F06FFAD5220021782000F06AFA73
:101C7C00F0220021782000F065FAD922002178208A
:101C8C0000F060FA22220021782000F05BFADA22C0
:101C9C000021782000F056FA12220021782000F062
:101CAC0051FADB220021782000F04CFA202200218E
:101CBC00782000F047FA8D220021782000F042FABB
:101CCC0014220021782000F03DFAAF220021782068
:101CDC0000F038FA2E220021782000F033FA002090
:101CEC0000F04EF800F01CF80A4B7B4400221A80DE
:101CFC00094B7B4400225A80084B7B4401225A71C9
:101D0C00012318460C37BD4690BD00BFF4E7FF1702
:101D1C0014000000AEEBFF17A6EBFF179EEBFF17AE
:101D2C0080B582B000AF0023FB711EE0FB79503B05
:101D3C00DBB21A460021782000F004FA00220021C0
:101D4C00782000F0FFF910220021782000F0FAF939
:101D5C00FB79DB01094A7A441A448023402178201C
:101D6C0000F084F9FB790133FB71FB79072BDDD98A
:101D7C0000BF00BF0837BD4680BD00BF42E7FF175C
:101D8C0080B582B000AF0346FB71FB79002B01D10B
:101D9C00002300E0FF234FF480621946044B7B4480
:101DAC00184605F069F900BF0837BD4680BD00BF75
:101DBC00FAE6FF1780B483B000AF0346FB800B46F6
:101DCC00BB801346FB70FB887F2B4DD8BB883F2B09
:101DDC004AD8284B7B441B79002B06D0FB78002B70
:101DEC000CBF01230023DBB2FB70FB78012B1CD151
:101DFC00FA88BB88DB0898B20346DB0113441E4A01
:101E0C007A44D35C5AB2BB8803F00703012101FA70
:101E1C0003F35BB2134359B2FA880346DB01134454
:101E2C00C9B2164A7A44D1541FE0FA88BB88DB0841
:101E3C0098B20346DB011344114A7A44D35C5AB27C
:101E4C00BB8803F00703012101FA03F35BB2DB4308
:101E5C005BB2134059B2FA880346DB011344C9B292
:101E6C00084A7A44D15400E000BF0C37BD4680BC10
:101E7C00704700BFC4EAFF1798E6FF1774E6FF1718
:101E8C005EE6FF1736E6FF1780B483B000AF03465B
:101E9C000A46FB801346BB80064B7B44FA881A80AB
:101EAC00054B7B44BA885A8000BF0C37BD4680BCBA
:101EBC00704700BFFEE9FF17F6E9FF1780B586B043
:101ECC0000AF03463960FB711346BB713E4B7B443C
:101EDC001B881A463B681B7813447F2B08DC3B4B52
:101EEC007B445B881A463B685B7813443F2B01DDCF
:101EFC00002364E000237B614FE03B685A68FB7968
:101F0C00203B3968497801FB03F319467B690B4484
:101F1C005B0013441B88FB6000233B6134E0FA68D0
:101F2C003B6902FA03F303F40043002B12D0284B55
:101F3C007B441A883B699BB2134498B2254B7B4473
:101F4C005A887B699BB213449BB2BA791946FFF746
:101F5C0031FF16E0204B7B441A883B699BB213443B
:101F6C0098B21E4B7B445A887B699BB2134499B23E
:101F7C00BB79002B0CBF01230023DBB21A46FFF701
:101F8C0019FF3B6901333B613B681B781A463B697F
:101F9C009342C4D37B6901337B613B685B781A46FF
:101FAC007B699342A9D30E4B7B441A883B681B7800
:101FBC009BB213449AB20B4B7B441A80FB791846A4
:101FCC001837BD4680BD00BFCAE9FF17B8E9FF1737
:101FDC0068E9FF175AE9FF1742E9FF1734E9FF17C1
:101FEC00F0E8FF17E0E8FF1780B584B000AFF860A9
:101FFC00B9601346FB7112E0FB681B78FA79B9687B
:10200C001846FFF75BFF03461A46FB681B789A429B
:10201C0002D0FB681B7808E0FB680133FB60FB68AF
:10202C001B78002BE8D1FB681B7818461037BD468F
:10203C0080BD80B500AF0020FFF7A2FEFFF770FE59
:10204C0000BF80BD80B483B000AF074B7B6002E063
:10205C007B68013B7B607B68002BF9D100BF00BF24
:10206C000C37BD4680BC704790D0030090B5C7B00C
:10207C0002AF0446084607F58871A1F588710A601D
:10208C00194607F58873A3F2091322461A7007F54F
:10209C008873A3F5857302461A7007F58873A3F548
:1020AC0086730A461A80254C7C4407F58873A3F581
:1020BC00827307F58872A2F5857212781A70002364
:1020CC0087F80F3115E097F80F3107F58872A2F5F4
:1020DC00887212681A4497F80F310133117807F59A
:1020EC008872A2F58272D15497F80F31013387F8B8
:1020FC000F3197F80F319BB207F58872A2F58672F3
:10210C0012889A42DFD807F58873A3F209131B785B
:10211C0099B207F58873A3F586731B8801339BB2BC
:10212C0007F10C020A2000900548205802F066F9CD
:10213C0000BF07F58A77BD4690BD00BFD4E2FF17FC
:10214C001400000090B587B002AF0346FB710B463C
:10215C00BB7113467B710A4C7C44BB793B737B7916
:10216C007B73FB7999B207F10C020A2300930223CB
:10217C000448205802F042F900BF1437BD4690BD08
:10218C0024E2FF171400000080B485B000AF154B9B
:10219C009B69144A43F001039361124B9B6903F052
:1021AC000103BB60BB680F4BDB690E4A43F08053E5
:1021BC00D3610C4BDB6903F080537B607B680A4B6B
:1021CC005B68FB60FB6823F0E063FB60FB6843F03B
:1021DC000073FB60044AFB68536000BF1437BD46B4
:1021EC0080BC7047001002400000014090B589B0DF
:1021FC0000AF7860374C7C4407F1100300221A6062
:10220C005A609A60DA607B681B682E4A934255D1FB
:10221C002D4B9B692C4A43F4007393612A4B9B69A9
:10222C0003F40073FB60FB68274B9B69264A43F061
:10223C0004039361244B9B6903F00403BB60BB68EC
:10224C0004233B6103237B6107F1100319461F48EC
:10225C0001F0AAFD204BE3581D4A1A601E4BE358AF
:10226C0000225A601C4BE35800229A601A4BE35828
:10227C008022DA60184BE3584FF480721A61164BC7
:10228C00E3584FF480625A61134BE35800229A6171
:10229C00114BE3580022DA610F4BE358184601F05A
:1022AC00ABF80346002B01D0FFF764FC7B680A4AAD
:1022BC00A2581A62084BE3587A685A6200BF243756
:1022CC00BD4690BD002401400010024000080140B2
:1022DC000800024086E1FF178000000080B588B03E
:1022EC0000AF786007F1100300221A605A609A6000
:1022FC00DA607B681B68154A934223D1144B9B69A7
:10230C00134A43F008039361114B9B6903F00803D4
:10231C00FB60FB68C0233B6112237B610323FB61E1
:10232C0007F1100319460B4801F03EFD084BDB6921
:10233C00074A43F40013D361054BDB6903F4001324
:10234C00BB60BB6800BF2037BD4680BD0054004059
:10235C0000100240000C014080B584B000AF7860E2
:10236C007B681B681A4A934214D11A4B9B69194A11
:10237C0043F400639361174B9B6903F40063FB60A8
:10238C00FB6800220021192000F0F1FF192001F058
:10239C000AF818E07B681B68B3F1804F13D10D4B22
:1023AC00DB690C4A43F00103D3610A4BDB6903F090
:1023BC000103BB60BB68002200211C2000F0D7FF8A
:1023CC001C2000F0F0FF00BF1037BD4680BD00BFE1
:1023DC00002C01400010024090B589B000AF78602D
:1023EC005D4C7C4407F1100300221A605A609A601D
:1023FC00DA607B681B68534A934240F09E80524BD4
:10240C009B69514A43F4804393614F4B9B6903F49E
:10241C008043FB60FB684C4B9B694B4A43F00403C5
:10242C009361494B9B6903F00403BB60BB684FF499
:10243C0000733B6102237B610323FB6107F11003F3
:10244C001946424801F0B0FC4FF480633B61002315
:10245C007B610023BB6107F1100319463B4801F077
:10246C00A3FC3E4BE3583A4A1A603C4BE35800221B
:10247C005A603A4BE35800229A60384BE35880225A
:10248C00DA60364BE35800221A61344BE3580022D1
:10249C005A61324BE35800229A61304BE3580022C8
:1024AC00DA612E4BE358184600F0A6FF0346002BCA
:1024BC0001D0FFF75FFB7B68284AA258DA63274BF1
:1024CC00E3587A685A62264BE358224A1A60244B26
:1024DC00E35810225A60224BE35800229A60204B9A
:1024EC00E3588022DA601E4BE35800221A611C4B21
:1024FC00E35800225A611A4BE35800229A61184B98
:10250C00E3580022DA61164BE358184600F074FFCA
:10251C000346002B01D0FFF72DFB7B68104AA25815
:10252C009A630F4BE3587A685A62002200212520E7
:10253C0000F01DFF252000F036FF00BF2437BD46FC
:10254C0090BD00BF0038014000100240000801405F
:10255C0058000240440002409ADFFF176000000060
:10256C005400000080B400AFFEE780B400AFFEE77B
:10257C0080B400AFFEE780B400AFFEE780B400AFDC
:10258C00FEE780B400AF00BFBD4680BC704780B48E
:10259C0000AF00BFBD4680BC704780B400AF00BF29
:1025AC00BD4680BC704780B500AF00F0A5F900BFF8
:1025BC0080BD000080B500AF044A7A44044BD35868
:1025CC00184601F087F800BF80BD00BFC2DDFF17C1
:1025DC008000000080B500AF044A7A44044BD35805
:1025EC00184601F077F800BF80BD00BFA2DDFF17D1
:1025FC005400000080B500AF044A7A44044BD35811
:10260C00184601F067F800BF80BD00BF82DDFF17E0
:10261C006000000080B500AF802001F093FD4FF406
:10262C00807001F08FFD4FF4007001F08BFD00BF46
:10263C0080BD000080B500AF044A7A44044BD358E7
:10264C00184603F06DF900BF80BD00BF42DDFF17D7
:10265C009000000080B500AF044A7A44044BD35874
:10266C00184603F05DF900BF80BD00BF22DDFF17E7
:10267C00A000000080B500AF044A7A44044BD35844
:10268C00184603F0C9FD00BF80BD00BF02DDFF1777
:10269C006400000080B500AF4FF4806001F052FD83
:1026AC004FF4006001F04EFD4FF4805001F04AFDF4
:1026BC004FF4005001F046FD4FF4804001F042FD14
:1026CC004FF4004001F03EFD00BF80BD80B586B0E8
:1026DC0000AFF860B9607A6000237B610AE0AFF369
:1026EC0000800146BB685A1CBA60CAB21A707B697A
:1026FC0001337B617A697B689A42F0DB7B68184610
:10270C001837BD4680BD80B483B000AF78604FF001
:10271C00FF3318460C37BD4680BC704780B483B07D
:10272C0000AF786039603B684FF400525A60002368
:10273C0018460C37BD4680BC704780B483B000AFE0
:10274C007860012318460C37BD4680BC704780B4B6
:10275C0085B000AFF860B9607A6000231846143772
:10276C00BD4680BC7047000080B586B000AF786075
:10277C001A4B7B441A4A9A5811461A4A9A588A1A82
:10278C007A617A693A61184A7A441268002A04D14B
:10279C00164A7A4416495B581360164B7B441A68E8
:1027AC007B6813443A699A4207D204F03BFC034617
:1027BC000C221A604FF0FF330CE00F4B7B441B686C
:1027CC00FB600E4B7B441A687B681A440C4B7B44B1
:1027DC001A60FB6818461837BD4680BD0ADCFF1727
:1027EC00A40000001000000018E1FF170EE1FF1715
:1027FC00AC00000004E1FF17E4E0FF17DCE0FF177A
:10280C00D2E0FF1780B400AF00BFBD4680BC70475C
:10281C00FFF7F8FF0B480C490C4A002302E0D45890
:10282C00C4500433C4188C42F9D3094A094C002310
:10283C0001E013600432A242FBD304F0F9FBFEF773
:10284C008FFA7047000000208C030020949D000834
:10285C0070040020780B0020FEE7000080B500AF6C
:10286C00084B1B68074A43F010031360032000F069
:10287C0073FD0F2000F008F8FFF786FC00231846C4
:10288C0080BD00BF0020024090B583B000AF7860DF
:10289C00154C7C44154BE3581A68154BE3581B78C0
:1028AC0019464FF47A73B3FBF1F3B2FBF3F318460A
:1028BC0000F095FD0346002B01D001230FE07B684F
:1028CC000F2B0BD8002279684FF0FF3000F04FFD32
:1028DC00084BE3587A681A60002300E0012318467D
:1028EC000C37BD4690BD00BFEADAFF171C00000094
:1028FC00240000005000000080B400AF084B7B4463
:10290C00084A9A5812781146074A9A5812680A448B
:10291C0005495B581A6000BFBD4680BC704700BFBC
:10292C007EDAFF17240000003400000080B400AFF2
:10293C00044A7A44044BD3581B681846BD4680BCE5
:10294C00704700BF4ADAFF173400000090B585B01D
:10295C0000AF78600F4C7C44FFF7E8FFB8607B68F1
:10296C00FB60FB68B3F1FF3F06D00B4BE3581B78C1
:10297C001A46FB681344FB6000BFFFF7D7FF024603
:10298C00BB68D31AFA689A42F7D800BF00BF143755
:10299C00BD4690BD26DAFF172400000080B400AFBE
:1029AC00044B1B68034A23F00203136000BFBD46AF
:1029BC0080BC704710E000E080B400AF044B1B6893
:1029CC00034A43F00203136000BFBD4680BC70474E
:1029DC0010E000E080B586B000AF78600023FB7596
:1029EC0000233B610023BB600023FB607B68002B52
:1029FC0001D10123BEE07B689B68002B7B689B6A3E
:102A0C00002B09D17B680022DA627B68002283F8F4
:102A1C0024207868FFF7EAFB786800F005FB034692
:102A2C00FB757B689B6A03F01003002B40F09980C8
:102A3C00FB7D002B40F095807B689B6A23F48853C8
:102A4C0023F0020343F002027B689A627B685A68A7
:102A5C007B68DB691A437B681B7B5B001343BA689A
:102A6C001343BB607B689B68B3F5807F03D07B68A6
:102A7C009B68012B02D14FF4807300E000233A696C
:102A8C0013433B617B681B7D012B19D17B681B7B3E
:102A9C00002B09D17B689B69013B5A033B691343AB
:102AAC0043F400633B610BE07B689B6A43F02002BC
:102ABC007B689A627B68DB6A43F001027B68DA62AE
:102ACC007B681B685B6823F469417B681B683A6907
:102ADC000A435A607B681B689A68284B13407A68D3
:102AEC001268B9680B4393607B689B68B3F5807F71
:102AFC0003D07B689B68012B04D17B681B69013B6D
:102B0C001B05FB607B681B68DB6A23F470017B6828
:102B1C001B68FA680A43DA627B681B689A68184B70
:102B2C001340BA689A420BD17B680022DA627B6848
:102B3C009B6A23F0030343F001027B689A6218E05E
:102B4C007B689B6A23F0120343F010027B689A6245
:102B5C007B68DB6A43F001027B68DA620123FB7558
:102B6C0007E07B689B6A43F010027B689A62012342
:102B7C00FB75FB7D18461837BD4680BDFDF7E1FFA0
:102B8C00FE0E1FFF90B587B000AFF860B9607A6099
:102B9C006A4C7C440023FB75FB681B68654A9342B6
:102BAC0004D0FB681B68644A934206D1614B5B6896
:102BBC0003F47023002B40F0B680FB6893F82430AC
:102BCC00012B01D10223B1E0FB68012283F8242000
:102BDC00F86800F0CBF90346FB75FB7D002B40F049
:102BEC009D80FB689B6A23F4706323F0010343F41C
:102BFC008072FB689A62FB681B684F4A934205D14E
:102C0C004C4B5B6803F47023002B15D1FB689B6A5B
:102C1C0023F48012FB689A62FB681B685B6803F400
:102C2C008063002B26D0FB689B6A23F4405343F44B
:102C3C008052FB689A621DE0FB689B6A43F4801229
:102C4C00FB689A62FB681B683A4A934204D0FB68A3
:102C5C001B68394A93420DD1364B5B6803F4806391
:102C6C00002B07D0FB689B6A23F4405343F480523B
:102C7C00FB689A62FB689B6A03F48053002B06D0B6
:102C8C00FB68DB6A23F00602FB68DA6202E0FB6891
:102C9C000022DA62FB68002283F82420FB681B6A9E
:102CAC00274AA2589A62FB681B6A264AA258DA6223
:102CBC00FB681B6A244AA2581A63FB681B686FF0F6
:102CCC0002021A60FB681B689A68FB681B6842F476
:102CDC0080729A60FB68186AFB681B684C33194653
:102CEC00BA687B6800F0E2FBFB681B689B6803F426
:102CFC006023B3F5602F08D1FB681B689A68FB68EA
:102D0C001B6842F4A0029A600FE0FB681B689A688B
:102D1C00FB681B6842F480129A6006E0FB68002294
:102D2C0083F8242001E00123FB75FB7D18461C373A
:102D3C00BD4690BD0024014000280140EAD7FF1792
:102D4C00B000000004000000C800000080B483B094
:102D5C0000AF786000BF0C37BD4680BC704780B4B4
:102D6C0083B000AF786000BF0C37BD4680BC7047A5
:102D7C0090B484B000AF786039607A49794400230C
:102D8C00FB730023BB607B6893F82430012B01D1CB
:102D9C000223DDE07B68012283F824203B685B681A
:102DAC00062B1CD87B681B68586B3B685A6813460B
:102DBC009B001344053B1F2202FA03F3DB4318402C
:102DCC003B681C683B685A6813469B001344053BE0
:102DDC0004FA03F27B681B6802435A633CE03B68CD
:102DEC005B680C2B1CD87B681B68186B3B685A689B
:102DFC0013469B001344233B1F2202FA03F3DB43CD
:102E0C0018403B681C683B685A6813469B00134487
:102E1C00233B04FA03F27B681B6802431A631BE032
:102E2C007B681B68D86A3B685A6813469B0013443E
:102E3C00413B1F2202FA03F3DB4318403B681C683A
:102E4C003B685A6813469B001344413B04FA03F257
:102E5C007B681B680243DA623B681B68092B1CD930
:102E6C007B681B68D8683B681A6813465B00134480
:102E7C001E3B072202FA03F3DB4318403B689C68B5
:102E8C003B681A6813465B0013441E3B04FA03F2BA
:102E9C007B681B680243DA6019E07B681B68186961
:102EAC003B681A6813465B001344072202FA03F3CB
:102EBC00DB4318403B689C683B681A6813465B0010
:102ECC00134404FA03F27B681B6802431A613B68E3
:102EDC001B68102B03D03B681B68112B33D17B680C
:102EEC001B681E4A934226D17B681B689B6803F4BF
:102EFC000003002B27D17B681B689A687B681B68D2
:102F0C0042F400029A603B681B68102B1BD1164BD5
:102F1C00CB581B68124AA2FB03239A0C13469B0046
:102F2C0013445B00BB6002E0BB68013BBB60BB6849
:102F3C00002BF9D107E07B689B6A43F020027B6889
:102F4C009A620123FB737B68002283F82420FB7BAD
:102F5C0018461037BD4690BC704700BF0024014096
:102F6C0083DE1B4300D6FF171C00000080B584B025
:102F7C0000AF78602A4A7A440023FB600023BB60D0
:102F8C007B681B689B6803F00103012B41D07B68B5
:102F9C001B6899687B681B6841F001019960214BA3
:102FAC00D3581B681D4AA2FB03239B0CBB6002E099
:102FBC00BB68013BBB60BB68002BF9D1FFF7B6FCCB
:102FCC00F8601FE0FFF7B2FC0246FB68D31A022B35
:102FDC0018D97B681B689B6803F00103012B11D087
:102FEC007B689B6A43F010027B689A627B68DB6AA1
:102FFC0043F001027B68DA627B68002283F82420AC
:10300C00012307E07B681B689B6803F00103012B1D
:10301C00D8D1002318461037BD4680BD83DE1B4334
:10302C0006D4FF171C00000080B584B000AF786098
:10303C000023FB607B681B689B6803F00103012B7A
:10304C002ED17B681B689A687B681B6822F0010292
:10305C009A60FFF76BFCF8601BE0FFF767FC024619
:10306C00FB68D31A022B14D97B681B689B6803F08E
:10307C000103012B0DD17B689B6A43F010027B6826
:10308C009A627B68DB6A43F001027B68DA62012397
:10309C0007E07B681B689B6803F00103012BDCD005
:1030AC00002318461037BD4680BD80B584B000AFF4
:1030BC0078607B685B6AFB60FB689B6A03F050037B
:1030CC00002B27D1FB689B6A43F40072FB689A6261
:1030DC00FB681B689B6803F46023B3F5602F15D164
:1030EC00FB681B7B002B11D1FB689B6A23F480725D
:1030FC00FB689A62FB689B6A03F48053002B05D132
:10310C00FB689B6A43F00102FB689A62F868FEF761
:10311C00BBFC04E0FB681B6A1B6B7868984700BF1C
:10312C001037BD4680BD80B584B000AF78607B6839
:10313C005B6AFB60F868FFF709FE00BF1037BD46FD
:10314C0080BD80B584B000AF78607B685B6AFB6043
:10315C00FB689B6A43F04002FB689A62FB68DB6A7F
:10316C0043F00402FB68DA62F868FFF7F8FD00BF71
:10317C001037BD4680BD000080B485B000AF7860CC
:10318C007B6803F00703FB600C4BDB68BB60BA6821
:10319C004FF6FF031340BB60FB681A02BB68134376
:1031AC0043F0BF6343F40033BB60044ABB68D36095
:1031BC0000BF1437BD4680BC704700BF00ED00E077
:1031CC0080B400AF044BDB681B0A03F007031846FE
:1031DC00BD4680BC704700BF00ED00E080B483B0FA
:1031EC0000AF0346FB7197F90730002B0BDBFB7923
:1031FC0003F01F02064997F907305B09012000FA1A
:10320C0002F241F8232000BF0C37BD4680BC70474A
:10321C0000E100E080B483B000AF0346FB7197F986
:10322C000730002B12DBFB7903F01F020A4997F9D8
:10323C0007305B09012000FA02F2203341F8232009
:10324C00BFF34F8F00BFBFF36F8F00BF00BF0C37B2
:10325C00BD4680BC704700BF00E100E080B483B085
:10326C0000AF03463960FB7197F90730002B0ADB7E
:10327C003B68DAB20C4997F907301201D2B20B4411
:10328C0083F800230AE03B68DAB20849FB7903F0C3
:10329C000F03043B1201D2B20B441A7600BF0C3759
:1032AC00BD4680BC704700BF00E100E000ED00E0CF
:1032BC0080B489B000AFF860B9607A60FB6803F045
:1032CC000703FB61FB69C3F10703042B28BF04232D
:1032DC00BB61FB690433062B02D9FB69033B00E09D
:1032EC0000237B614FF0FF32BB6902FA03F3DA4330
:1032FC00BB681A407B699A404FF0FF317B6901FA39
:10330C0003F3D9437B680B40134318462437BD465F
:10331C0080BC704780B582B000AF78607B68013BA1
:10332C00B3F1807F01D301230FE00A4A7B68013B94
:10333C0053600F214FF0FF30FFF790FF054B002239
:10334C009A60044B07221A60002318460837BD46C2
:10335C0080BD00BF10E000E080B582B000AF7860A7
:10336C007868FFF709FF00BF0837BD4680BD80B500
:10337C0086B000AF0346B9607A60FB7300237B61B3
:10338C00FFF71EFF78617A68B9687869FFF790FFDC
:10339C00024697F90F3011461846FFF75FFF00BF42
:1033AC001837BD4680BD80B582B000AF0346FB71B7
:1033BC0097F907301846FFF711FF00BF0837BD46D5
:1033CC0080BD80B582B000AF0346FB7197F9073022
:1033DC001846FFF71FFF00BF0837BD4680BD80B5FC
:1033EC0082B000AF78607868FFF794FF0346184608
:1033FC000837BD4680BD000080B485B000AF786052
:10340C000023FB607B68002B01D1012343E07B6828
:10341C001B681A46224B1344224AA2FB03231B09A6
:10342C009A007B681A647B681F4ADA637B68022205
:10343C0083F821207B681B681B68FB60FB6823F406
:10344C007F5323F03003FB607B685A687B689B6872
:10345C001A437B68DB681A437B681B691A437B68D9
:10346C005B691A437B689B691A437B68DB6913436E
:10347C00FA681343FB607B681B68FA681A607B6808
:10348C0000229A637B68012283F821207B6800224A
:10349C0083F82020002318461437BD4680BC7047A3
:1034AC00F8FFFDBFCDCCCCCC0000024080B586B07F
:1034BC0000AFF860B9607A603B600023FB75FB6875
:1034CC0093F82030012B01D102234BE0FB68012241
:1034DC0083F82020FB6893F82130DBB2012B3AD122
:1034EC00FB68022283F82120FB6800229A63FB68A8
:1034FC001B681A68FB681B6822F001021A603B68A3
:10350C007A68B968F86800F0EBF9FB68DB6A002BA5
:10351C0008D0FB681B681A68FB681B6842F00E0237
:10352C001A600FE0FB681B681A68FB681B6822F0C6
:10353C0004021A60FB681B681A68FB681B6842F07F
:10354C000A021A60FB681B681A68FB681B6842F069
:10355C0001021A6005E0FB68002283F82020022398
:10356C00FB75FB7D18461837BD4680BD80B485B011
:10357C0000AF78600023FB737B6893F82130DBB2DB
:10358C00022B08D07B6804229A637B68002283F8A4
:10359C002020012320E07B681B681A687B681B686D
:1035AC0022F00E021A607B681B681A687B681B6825
:1035BC0022F001021A607B681A6C7B68DB6B0121BC
:1035CC0001FA02F25A607B68012283F821207B68A1
:1035DC00002283F82020FB7B18461437BD4680BCA4
:1035EC007047000080B584B000AF78600023FB7397
:1035FC007B6893F82130DBB2022B05D07B68042268
:10360C009A630123FB7351E07B681B681A687B6823
:10361C001B6822F00E021A607B681B681A687B68B4
:10362C001B6822F001021A607B681B68224A9342D5
:10363C0029D07B681B68214A934222D07B681B6887
:10364C001F4A93421AD07B681B681E4A934212D0C1
:10365C007B681B681C4A93420AD07B681B681B4A18
:10366C00934202D14FF480130EE04FF080730BE0C5
:10367C004FF4803308E04FF4805305E04FF480732F
:10368C0002E0102300E00123114A53607B68012201
:10369C0083F821207B68002283F820207B685B6BF9
:1036AC00002B03D07B685B6B78689847FB7B1846D4
:1036BC001037BD4680BD00BF080002401C00024010
:1036CC003000024044000240580002406C000240AE
:1036DC000000024080B584B000AF78607B68DB6B83
:1036EC001B68FB607B681B681B68BB607B681B6C82
:1036FC0004229A40FB681340002B4FD0BB6803F0A8
:10370C000403002B4AD07B681B681B6803F0200362
:10371C00002B07D17B681B681A687B681B6822F03A
:10372C0004021A607B681B68664A934229D07B6846
:10373C001B68654A934222D07B681B68634A93429C
:10374C001AD07B681B68624A934212D07B681B6854
:10375C00604A93420AD07B681B685F4A934202D14D
:10376C004FF480030EE04FF080630BE04FF48023A6
:10377C0008E04FF4804305E04FF4806302E04023FF
:10378C0000E00423554A53607B68DB6A002B00F091
:10379C0094807B68DB6A786898478EE07B681B6C4A
:1037AC0002229A40FB681340002B56D0BB6803F0F2
:1037BC000203002B51D07B681B681B6803F02003AD
:1037CC00002B0BD17B681B681A687B681B6822F086
:1037DC000A021A607B68012283F821207B681B682F
:1037EC00384A934229D07B681B68374A934222D0CF
:1037FC007B681B68354A93421AD07B681B68344A35
:10380C00934212D07B681B68324A93420AD07B6881
:10381C001B68314A934202D14FF400130EE04FF073
:10382C0000730BE04FF4003308E04FF4005305E055
:10383C004FF4007302E0202300E00223274A536078
:10384C007B68002283F820207B689B6A002B34D095
:10385C007B689B6A786898472FE07B681B6C082212
:10386C009A40FB681340002B28D0BB6803F0080378
:10387C00002B23D07B681B681A687B681B6822F0BE
:10388C000E021A607B681A6C7B68DB6B012101FAF3
:10389C0002F25A607B6801229A637B68012283F8EA
:1038AC0021207B68002283F820207B681B6B002B77
:1038BC0004D07B681B6B7868984700BF00BF10373B
:1038CC00BD4680BD080002401C0002403000024092
:1038DC0044000240580002406C00024000000240CC
:1038EC0080B485B000AFF860B9607A603B60FB686B
:1038FC001A6CFB68DB6B012101FA02F25A60FB685F
:10390C001B683A685A60FB685B68102B08D1FB682F
:10391C001B687A689A60FB681B68BA68DA6007E013
:10392C00FB681B68BA689A60FB681B687A68DA6087
:10393C0000BF1437BD4680BC70470000F0B587B09F
:10394C0000AFF860B960C7E90023364E7E4401230E
:10395C00FB750023BB7500237B75334BF3581B7E23
:10396C00012B01D1022357E02F4BF35801221A7679
:10397C004CF2503000F0C0F80346FB75FB7D002B79
:10398C0045D1FB68012B02D101237B7507E0FB6855
:10399C00022B02D102237B7501E004237B750023EB
:1039AC00BB752EE0BB7D5A00BB6802EB030EBB7DE2
:1039BC001901D7E90023C1F1200CA1F1200022FA52
:1039CC0001F403FA0CFC44EA0C0423FA00F004435F
:1039DC0023FA01F5A3B21946704600F06DF84CF2CB
:1039EC00503000F089F80346FB750D4B1B690C4AEF
:1039FC0023F001031361FB7D002B07D1BB7D013349
:103A0C00BB75BA7D7B7D9A42CCD300E000BF064BE0
:103A1C00F35800221A76FB7D18461C37BD46F0BDC4
:103A2C000020024030CAFF173800000080B483B079
:103A3C0000AF0023FB710D4B1B6903F08003002BBF
:103A4C000DD00A4B0A4A5A60084B0A4A5A60074B77
:103A5C001B6903F08003002B01D00123FB71FB7960
:103A6C0018460C37BD4680BC704700BF0020024092
:103A7C0023016745AB89EFCD80B400AF054B1B69C3
:103A8C00044A43F08003136100231846BD4680BCF2
:103A9C00704700BF0020024080B400AF044A7A4453
:103AAC00044BD358DB691846BD4680BC704700BF39
:103ABC00DEC8FF173800000080B483B000AF786018
:103ACC000B467B800A4A7A440A4BD3580022DA61AF
:103ADC00064B1B69054A43F0010313617B687A8826
:103AEC001A8000BF0C37BD4680BC704700200240D6
:103AFC00B6C8FF173800000080B584B000AF7860FE
:103B0C00FEF714FFF86010E07B68B3F1FF3F0CD0B8
:103B1C007B68002B07D0FEF709FF0246FB68D31A1F
:103B2C007A689A4201D2032325E0154BDB6803F037
:103B3C000103002BE8D1124BDB6803F02003002BB0
:103B4C0002D00F4B2022DA600D4BDB6803F0100320
:103B5C00002B0BD10A4BDB6903F00103002B05D1C1
:103B6C00074BDB6803F00403002B03D000F00AF8CA
:103B7C00012300E0002318461037BD4680BD00BF6E
:103B8C000020024080B483B000AF294B7B4400225C
:103B9C007A60264AD26802F01002002A0BD0254A1D
:103BAC009A58D26942F00201224A9A58D1617A6835
:103BBC0042F010027A601D4AD26802F00402002A18
:103BCC000BD01C4A9A58D26942F00101194A9A58F2
:103BDC00D1617A6842F004027A60144AD26902F028
:103BEC000102002A0DD0134A9A58D26942F00402FD
:103BFC0010495B58DA610D4BDB690C4A23F0010369
:103C0C00D3617B6840F20112934206D1074BDB690A
:103C1C00064A23F00103D36102E0044A7B68D360B7
:103C2C0000BF0C37BD4680BC704700BF002002406F
:103C3C00F0C7FF173800000090B585B000AF786072
:103C4C003960344C7C440123FB730023BB60324B42
:103C5C00E3581B7E012B01D1022355E02E4BE35878
:103C6C0001221A767B681B68022B16D14CF250305D
:103C7C00FFF742FF0346002B41D1012000F04EF824
:103C8C004CF25030FFF738FF0346FB73204B1B6997
:103C9C001F4A23F00403136131E04CF25030FFF75C
:103CAC002BFF0346002B2AD13B684FF0FF321A60E2
:103CBC007B689B68BB6019E0B86800F051F84CF267
:103CCC005030FFF719FF0346FB73114B1B69104A69
:103CDC0023F002031361FB7B002B03D03B68BA6813
:103CEC001A600CE0BB6803F58063BB607B68DB6823
:103CFC009A027B689B681344BA689A42DCD3064BE1
:103D0C00E35800221A76FB7B18461437BD4690BD4B
:103D1C000020024038C7FF173800000080B483B081
:103D2C0000AF78600C4A7A440C4BD3580022DA610D
:103D3C00084B1B69074A43F004031361054B1B69CD
:103D4C00044A43F04003136100BF0C37BD4680BCEE
:103D5C00704700BF0020024056C6FF173800000015
:103D6C0080B483B000AF78600D4A7A440D4BD358C1
:103D7C000022DA61094B1B69084A43F00203136104
:103D8C00064A7B685361054B1B69044A43F04003A8
:103D9C00136100BF0C37BD4680BC70470020024049
:103DAC0012C6FF173800000080B48BB000AF7860EB
:103DBC00396000237B6200233B626BE101227B6A4A
:103DCC0002FA03F3FB613B681B68FA691340BB61A1
:103DDC00BA69FB699A4240F05A813B685B689B4A1E
:103DEC00934260D0994A934277D8994A93425AD0D9
:103DFC00974A934271D8974A934254D0954A93422A
:103E0C006BD8954A93424ED0934A934265D8934AC5
:103E1C00934248D0914A93425FD8122B2CD8122B44
:103E2C005BD802A252F823301A4410477B000000E2
:103E3C005500000067000000A9000000AF00000062
:103E4C00AF000000AF000000AF000000AF000000AA
:103E5C00AF000000AF000000AF000000AF0000009A
:103E6C00AF000000AF000000AF000000AF0000008A
:103E7C005D00000071000000794A934213D02CE0E1
:103E8C003B68DB683B6229E03B68DB6804333B62E0
:103E9C0024E03B68DB6808333B621FE03B68DB686F
:103EAC000C333B621AE03B689B68002B02D1042365
:103EBC003B6213E03B689B68012B05D108233B62F6
:103ECC007B68FA691A6109E008233B627B68FA692E
:103EDC005A6103E000233B6200E000BFBB69FF2B8B
:103EEC0001D87B6801E07B6804337B61BB69FF2BE5
:103EFC0002D87B6A9B0002E07B6A083B9B003B611B
:103F0C007B691A680F213B6901FA03F3DB431A4002
:103F1C00396A3B6901FA03F31A437B691A603B68FF
:103F2C005B6803F08053002B00F0B1804D4B9B6914
:103F3C004C4A43F0010393614A4B9B6903F0010324
:103F4C00BB60BB68484A7B6A9B08023352F823303B
:103F5C00FB607B6A03F003039B000F2202FA03F35E
:103F6C00DB43FA681340FB607B68404A934213D0F2
:103F7C007B683F4A93420DD07B683E4A934207D000
:103F8C007B683D4A934201D1032306E0042304E0FD
:103F9C00022302E0012300E000237A6A02F003020C
:103FAC0092009340FA681343FB602F497B6A9B088D
:103FBC000233FA6841F823203B685B6803F48013F2
:103FCC00002B06D02D4B9A682C49BB6913438B6090
:103FDC0006E02A4B9A68BB69DB43284913408B6087
:103FEC003B685B6803F40013002B06D0234BDA68A4
:103FFC002249BB691343CB6006E0204BDA68BB69EE
:10400C00DB431E491340CB603B685B6803F4003311
:10401C00002B06D0194B5A681849BB6913434B60E7
:10402C0006E0164B5A68BB69DB43144913404B60DE
:10403C003B685B6803F48033002B21D00F4B1A686C
:10404C000E49BB6913430B6021E000BF0000321026
:10405C00000031100000221000002110000012108E
:10406C000000111000100240000001400008014047
:10407C00000C0140001001400014014000040140FC
:10408C000B4B1A68BB69DB43094913400B607B6A15
:10409C0001337B623B681A687B6A22FA03F3002BBC
:1040AC007FF48CAE00BF00BF2C37BD4680BC704780
:1040BC000004014080B485B000AF78600B467B8073
:1040CC007B689A687B881340002B02D00123FB731A
:1040DC0001E00023FB73FB7B18461437BD4680BC04
:1040EC00704780B483B000AF78600B467B8013467A
:1040FC007B707B78002B03D07A887B681A6103E095
:10410C007B881A047B681A6100BF0C37BD4680BCE3
:10411C00704780B485B000AF78600B467B807B68BD
:10412C00DB68FB607A88FB6813401A04FB68D94390
:10413C007B880B401A437B681A6100BF1437BD465D
:10414C0080BC704780B582B000AF0346FB80084B43
:10415C005A69FB881340002B06D0054AFB88536133
:10416C00FB881846FDF710FC00BF0837BD4680BD24
:10417C000004014080B584B000AF78607B68002BF0
:10418C0001D101232BE17B6893F83D30DBB2002B8E
:10419C0006D17B68002283F83C207868FEF79EF8F5
:1041AC007B68242283F83D207B681B681A687B6837
:1041BC001B6822F001021A607B681B681A687B6816
:1041CC001B6842F400421A607B681B681A687B68A3
:1041DC001B6822F400421A6001F0C4F9F8607B6895
:1041EC005B68814A934207D8FB68804A934294BF2C
:1041FC0001230023DBB206E0FB687D4A934294BFA7
:10420C0001230023DBB2002B01D00123E7E0FB6884
:10421C00784AA2FB03239B0CBB607B681B685B6822
:10422C0023F03F017B681B68BA680A435A607B68BD
:10423C001B681B6A23F03F017B685B686A4A9342E8
:10424C0002D8BB68013309E0BB684FF4967202FBDD
:10425C0003F3694AA2FB03239B0901337A681268B2
:10426C000B4313627B681B68DB6923F44F4222F01B
:10427C00FF027B685B685C498B4219D8FB68591E4E
:10428C007B685B685B00B1FBF3F3591C40F6FC7375
:10429C000B40002B0AD0FB68591E7B685B685B00E7
:1042AC00B1FBF3F30133C3F30B0351E004234FE0F1
:1042BC007B689B68002B11D1FB68581E7B68596882
:1042CC000B465B000B44B0FBF3F30133C3F30B035E
:1042DC00002B0CBF01230023DBB212E0FB68581E3D
:1042EC007B6859680B469B000B4499000B44B0FB50
:1042FC00F3F30133C3F30B03002B0CBF0123002397
:10430C00DBB2002B01D0012322E07B689B68002BE1
:10431C000ED1FB68581E7B6859680B465B000B443A
:10432C00B0FBF3F30133C3F30B0343F400430FE08F
:10433C00FB68581E7B6859680B469B000B44990020
:10434C000B44B0FBF3F30133C3F30B0343F44043CF
:10435C00796809681343CB617B681B681B6823F081
:10436C00C0017B68DA697B681B6A1A437B681B682F
:10437C000A431A607B681B689B6823F4034323F091
:10438C00FF037A6811697A68D26811437A681268F7
:10439C000B4393607B681B68DB6823F0FF017B6831
:1043AC005A697B689B691A437B681B680A43DA600D
:1043BC007B681B681A687B681B6842F001021A60F4
:1043CC007B6800221A647B68202283F83D207B687E
:1043DC0000221A637B68002283F83E2000231846D3
:1043EC001037BD4680BD00BFA08601007F841E0033
:1043FC00FF083D0083DE1B43D34D621080B588B0AF
:10440C0002AFF8607A601A460B467B8113463B81FB
:10441C00FEF78CFA7861FB6893F83D30DBB2202B09
:10442C0040F0E0807B690093192301227049F86801
:10443C0000F092FA0346002B01D00223D3E0FB6874
:10444C0093F83C30012B01D10223CCE0FB68012214
:10445C0083F83C20FB681B681B6803F00103012BED
:10446C0007D0FB681B681A68FB681B6842F00102E6
:10447C001A60FB681B681A68FB681B6822F40062F0
:10448C001A60FB68212283F83D20FB68102283F818
:10449C003E20FB6800221A64FB687A685A62FB684B
:1044AC003A895A85FB685B8D9AB2FB681A85FB6862
:1044BC00504ADA6279897B693A6AF86800F0CAF97D
:1044CC000346002B01D001238DE000233B61FB68E8
:1044DC001B685B693B61FB681B689B693B613B69C3
:1044EC0066E07A69396AF86800F050FB0346002BE5
:1044FC000DD0FB681B6C042B07D1FB681B681A687A
:10450C00FB681B6842F400721A6001236BE0FB68C5
:10451C005B6A1A78FB681B681A61FB685B6A5A1C39
:10452C00FB685A62FB685B8D9BB2013B9AB2FB68DD
:10453C005A85FB681B8D013B9AB2FB681A85FB6898
:10454C001B685B6903F00403042B1BD1FB681B8DF8
:10455C00002B17D0FB685B6A1A78FB681B681A6122
:10456C00FB685B6A5A1CFB685A62FB685B8D9BB2EA
:10457C00013B9AB2FB685A85FB681B8D013B9AB2D2
:10458C00FB681A857A69396AF86800F047FB0346BC
:10459C00002B0DD0FB681B6C042B07D1FB681B6830
:1045AC001A68FB681B6842F400721A6001231AE057
:1045BC00FB681B8D002B94D1FB681B681A68FB6889
:1045CC001B6842F400721A60FB68202283F83D20BD
:1045DC00FB68002283F83E20FB68002283F83C2015
:1045EC00002300E0022318461837BD4680BD00BFEB
:1045FC00020010000000FFFF80B58AB002AFF86027
:10460C007A603B600B467B81FEF790F9F8610023E2
:10461C00BB61FB6893F83D30DBB2202B40F011817D
:10462C00FB690093192301228849F86800F094F97A
:10463C000346002B01D0022304E1FB6893F83C30C5
:10464C00012B01D10223FDE0FB68012283F83C2001
:10465C00FB681B681B6803F00103012B07D0FB6888
:10466C001B681A68FB681B6842F001021A60FB6841
:10467C001B681A68FB681B6822F400621A60FB68EE
:10468C00242283F83D20FB6800221A64FB68704AE0
:10469C00DA62FB681B681A68FB681B6842F480725C
:1046AC001A60FB6900933B6800224FF00111F86817
:1046BC0000F052F90346002B0DD0FB681B681B68F9
:1046CC0003F48073B3F5807F03D1FB684FF4007261
:1046DC001A640323B6E07B89DBB21A46FB681B68BD
:1046EC0002F0FE021A61FEF721F9F861FB681B6803
:1046FC005B6903F00203022B0CBF01230023DBB226
:10470C00FB75FB681B685B6903F48063B3F5806F12
:10471C000CBF01230023DBB2BB7525E0FEF706F9C5
:10472C000246FB69D31A3A689A4202D33B68002BC3
:10473C0003D1FB68A02283F83D20FB681B685B69F2
:10474C0003F00203022B0CBF01230023DBB2FB7529
:10475C00FB681B685B6903F48063B3F5806F0CBF67
:10476C0001230023DBB2BB75FB6893F83D30DBB251
:10477C00A02B05D0FB7D002B02D1BB7D002BCDD017
:10478C00FB68202283F83D20FB681B685B6903F003
:10479C000203022B29D1FB681B681A68FB681B6893
:1047AC0042F400721A6000233B61FB681B685B6972
:1047BC003B61FB681B689B693B613B69FB69009330
:1047CC00192301222149F86800F0C6F80346002B92
:1047DC0001D0012336E0FB68202283F83D20FB68E2
:1047EC00002283F83C2000232CE0FB681B681A682D
:1047FC00FB681B6842F400721A60FB681B686FF45C
:10480C0080625A61FB690093192301220F49F868F1
:10481C0000F0A2F80346002B01D0012312E0BB6983
:10482C000133BB61BA697B689A42FFF432AFFB6813
:10483C00202283F83D20FB68002283F83C200123D2
:10484C0000E0022318462037BD4680BD0200100050
:10485C000000FFFF80B588B002AFF8607A603B6063
:10486C000B467B81FB68DB6A7B617B69082B06D07E
:10487C007B69012B03D07B6913F5803F08D1FB6862
:10488C001B681A68FB681B6842F480721A600BE0A4
:10489C00FB681B6B122B07D1FB681B681A68FB6843
:1048AC001B6842F480721A603B6800937B6800229C
:1048BC004FF00111F86800F04FF80346002B0DD0B3
:1048CC00FB681B681B6803F48073B3F5807F03D10E
:1048DC00FB684FF400721A64032335E0FB681B6914
:1048EC00B3F5804F08D17B89DBB21A46FB681B6895
:1048FC0002F0FE021A611BE07B89DB11DBB203F0D4
:10490C000603DBB263F00F03DAB2FB681B681A61B3
:10491C003B687A680E49F86800F098F80346002B5B
:10492C0001D0012310E07B89DAB2FB681B681A61A5
:10493C003B687A680749F86800F088F80346002B52
:10494C0001D0012300E0002318461837BD4680BD76
:10495C00080001000200010080B584B000AFF860CF
:10496C00B9603B601346FB7148E03B68B3F1FF3F15
:10497C0044D0FDF7DBFF0246BB69D31A3A689A4272
:10498C0002D33B68002B39D1BB681B0CDBB2012B6B
:10499C000DD1FB681B685B69DA43BB6813409BB2A3
:1049AC00002B0CBF01230023DBB21A460CE0FB6882
:1049BC001B689B69DA43BB6813409BB2002B0CBF8E
:1049CC0001230023DBB21A46FB799A4216D1FB680D
:1049DC0000221A63FB68202283F83D20FB6800222A
:1049EC0083F83E20FB681B6C43F02002FB681A64C2
:1049FC00FB68002283F83C20012323E0BB681B0CDE
:104A0C00DBB2012B0DD1FB681B685B69DA43BB6819
:104A1C0013409BB2002B0CBF01230023DBB21A46C0
:104A2C000CE0FB681B689B69DA43BB6813409BB2C4
:104A3C00002B0CBF01230023DBB21A46FB799A42F0
:104A4C0093D0002318461037BD4680BD80B584B086
:104A5C0000AFF860B9607A603B6071E0FB681B687E
:104A6C005B6903F48063B3F5806F23D1FB681B682B
:104A7C001A68FB681B6842F400721A60FB681B68BA
:104A8C006FF480625A61FB6800221A63FB68202273
:104A9C0083F83D20FB68002283F83E20FB681B6CEA
:104AAC0043F00402FB681A64FB68002283F83C2084
:104ABC00012367E07B68B3F1FF3F41D0FDF736FF80
:104ACC0002463B68D31A7A689A4202D37B68002B61
:104ADC0036D1BB681B0CDBB2012B0CD1FB681B68FD
:104AEC005B69DA43BB6813409BB2002B14BF0123F4
:104AFC000023DBB20BE0FB681B689B69DA43BB68E5
:104B0C0013409BB2002B14BF01230023DBB2002BFC
:104B1C0016D0FB6800221A63FB68202283F83D2024
:104B2C00FB68002283F83E20FB681B6C43F02002DC
:104B3C00FB681A64FB68002283F83C20012321E007
:104B4C00BB681B0CDBB2012B0CD1FB681B685B69CF
:104B5C00DA43BB6813409BB2002B14BF0123002324
:104B6C00DBB20BE0FB681B689B69DA43BB68134044
:104B7C009BB2002B14BF01230023DBB2002B7FF46C
:104B8C006DAF002318461037BD4680BD80B584B08C
:104B9C0000AFF860B9607A6034E0F86800F086F82D
:104BAC000346002B01D0012334E0BB68B3F1FF3F77
:104BBC0028D0FDF7BBFE02467B68D31ABA689A422E
:104BCC0002D3BB68002B1DD1FB681B685B6903F02B
:104BDC008003802B16D0FB6800221A63FB6820220E
:104BEC0083F83D20FB68002283F83E20FB681B6C99
:104BFC0043F02002FB681A64FB68002283F83C2017
:104C0C00012307E0FB681B685B6903F08003802BC2
:104C1C00C3D1002318461037BD4680BD80B584B083
:104C2C0000AFF860B9607A6034E0F86800F03EF8E4
:104C3C000346002B01D0012334E0BB68B3F1FF3FE6
:104C4C0028D0FDF773FE02467B68D31ABA689A42E5
:104C5C0002D3BB68002B1DD1FB681B685B6903F09A
:104C6C000403042B16D0FB6800221A63FB68202275
:104C7C0083F83D20FB68002283F83E20FB681B6C08
:104C8C0043F02002FB681A64FB68002283F83C2086
:104C9C00012307E0FB681B685B6903F00403042B2A
:104CAC00C3D1002318461037BD4680BD80B483B0F5
:104CBC0000AF78607B681B685B6903F48063B3F5B5
:104CCC00806F1BD17B681B686FF480625A617B68B4
:104CDC0000221A637B68202283F83D207B68002227
:104CEC0083F83E207B681B6C43F004027B681A64DB
:104CFC007B68002283F83C20012300E00023184647
:104D0C000C37BD4680BC704780B400AF20BF00BFDD
:104D1C0000BFBD4680BC704780B483B000AF7860E4
:104D2C000B46FB70094B1B69084A23F00403136103
:104D3C00FB78012B01D130BF02E040BF20BF20BF68
:104D4C0000BF0C37BD4680BC704700BF00ED00E0D3
:104D5C0080B582B000AF78600B46FB70134B1B68BC
:104D6C00124A23F002031360104B1B6823F001025C
:104D7C000E497B6813430B600D4B1B690C4A43F0C7
:104D8C0004031361FB78012B01D130BF04E040BF59
:104D9C00FFF7BAFFFFF7B8FF054B1B69044A23F076
:104DAC000403136100BF0837BD4680BD007000408E
:104DBC0000ED00E080B586B000AF78607B68002B1A
:104DCC0001D1012372E27B681B6803F00103002B05
:104DDC0000F08780924B5B6803F00C03042B0CD023
:104DEC008F4B5B6803F00C03082B12D18C4B5B6868
:104DFC0003F48033B3F5803F0BD1894B1B6803F46C
:104E0C000033002B6CD07B685B68002B68D10123CE
:104E1C004CE27B685B68B3F5803F06D1804B1B6826
:104E2C007F4A43F4803313602EE07B685B68002B71
:104E3C000CD17B4B1B687A4A23F480331360784B7C
:104E4C001B68774A23F4802313601DE07B685B6842
:104E5C00B3F5A02F0CD1724B1B68714A43F480231D
:104E6C0013606F4B1B686E4A43F4803313600BE086
:104E7C006B4B1B686A4A23F480331360684B1B68C6
:104E8C00674A23F4802313607B685B68002B13D084
:104E9C00FDF74CFD386108E0FDF748FD02463B6923
:104EAC00D31A642B01D9032300E25D4B1B6803F476
:104EBC000033002BF0D014E0FDF738FD386108E02A
:104ECC00FDF734FD02463B69D31A642B01D9032349
:104EDC00ECE1534B1B6803F40033002BF0D100E0E2
:104EEC0000BF7B681B6803F00203002B63D04C4BA4
:104EFC005B6803F00C03002B0BD0494B5B6803F091
:104F0C000C03082B1CD1464B5B6803F48033002B3D
:104F1C0016D1434B1B6803F00203002B05D07B68B2
:104F2C001B69012B01D00123C0E13D4B1B6823F011
:104F3C00F8027B685B69DB00394913430B603AE08C
:104F4C007B681B69002B20D0364B01221A60FDF7C1
:104F5C00EDFC386108E0FDF7E9FC02463B69D31A29
:104F6C00022B01D90323A1E12D4B1B6803F0020393
:104F7C00002BF0D02A4B1B6823F0F8027B685B698E
:104F8C00DB00274913430B6015E0264B00221A6007
:104F9C00FDF7CCFC386108E0FDF7C8FC02463B6924
:104FAC00D31A022B01D9032380E11D4B1B6803F09C
:104FBC000203002BF0D17B681B6803F00803002B65
:104FCC003AD07B689B69002B19D0174B01221A60D1
:104FDC00FDF7ACFC386108E0FDF7A8FC02463B6924
:104FEC00D31A022B01D9032360E10D4B5B6A03F04A
:104FFC000203002BF0D0012000F0E8FA1CE00A4B71
:10500C0000221A60FDF792FC38610FE0FDF78EFC70
:10501C0002463B69D31A022B08D9032346E100BF91
:10502C00001002400000424280044242924B5B6AF4
:10503C0003F00203002BE9D17B681B6803F0040327
:10504C00002B00F0A6800023FB758B4BDB6903F073
:10505C008053002B0DD1884BDB69874A43F080537A
:10506C00D361854BDB6903F08053BB60BB680123C4
:10507C00FB75824B1B6803F48073002B18D17F4B9C
:10508C001B687E4A43F480731360FDF74FFC386154
:10509C0008E0FDF74BFC02463B69D31A642B01D99F
:1050AC00032303E1754B1B6803F48073002BF0D0D2
:1050BC007B68DB68012B06D16F4B1B6A6E4A43F091
:1050CC00010313622DE07B68DB68002B0CD16A4B6B
:1050DC001B6A694A23F001031362674B1B6A664A19
:1050EC0023F0040313621CE07B68DB68052B0CD1F6
:1050FC00614B1B6A604A43F0040313625E4B1B6AEC
:10510C005D4A43F0010313620BE05B4B1B6A5A4A86
:10511C0023F001031362584B1B6A574A23F0040314
:10512C0013627B68DB68002B15D0FDF7FFFB386141
:10513C000AE0FDF7FBFB02463B69D31A41F28832C9
:10514C00934201D90323B1E04B4B1B6A03F00203DA
:10515C00002BEED014E0FDF7E9FB38610AE0FDF717
:10516C00E5FB02463B69D31A41F28832934201D9DE
:10517C0003239BE0404B1B6A03F00203002BEED190
:10518C00FB7D012B05D13C4BDB693B4A23F0805363
:10519C00D3617B68DB69002B00F08780364B5B6842
:1051AC0003F00C03082B61D07B68DB69022B46D122
:1051BC00334B00221A60FDF7B9FB386108E0FDF7AC
:1051CC00B5FB02463B69D31A022B01D903236DE0D0
:1051DC00294B1B6803F00073002BF0D17B681B6A12
:1051EC00B3F5803F08D1244B5B6823F400327B6815
:1051FC009B68214913434B601F4B5B6823F474126B
:10520C007B68196A7B685B6A0B431B4913434B60D1
:10521C001B4B01221A60FDF789FB386108E0FDF792
:10522C0085FB02463B69D31A022B01D903233DE0CF
:10523C00114B1B6803F00073002BF0D035E0104BC2
:10524C0000221A60FDF772FB386108E0FDF76EFB77
:10525C0002463B69D31A022B01D9032326E0064BE5
:10526C001B6803F00073002BF0D11EE07B68DB6938
:10527C00012B07D1012319E00010024000700040FF
:10528C00600042420B4B5B68FB60FB6803F48032AE
:10529C007B681B6A9A4206D1FB6803F470127B6828
:1052AC005B6A9A4201D0012300E0002318461837AC
:1052BC00BD4680BD0010024090B585B000AF78604F
:1052CC003960714C7C447B68002B01D10123D3E005
:1052DC006B4B1B6803F007033A689A4210D9684B72
:1052EC001B6823F0070266493B6813430B60644B51
:1052FC001B6803F007033A689A4201D00123BBE014
:10530C007B681B6803F00203002B20D07B681B68B2
:10531C0003F00403002B05D05A4B5B68594A43F445
:10532C00E06353607B681B6803F00803002B05D017
:10533C00544B5B68534A43F460535360514B5B6866
:10534C0023F0F0027B689B684E4913434B607B68EB
:10535C001B6803F00103002B40D07B685B68012BBA
:10536C0007D1484B1B6803F40033002B15D10123E4
:10537C0082E07B685B68022B07D1424B1B6803F011
:10538C000073002B09D1012376E03E4B1B6803F020
:10539C000203002B01D101236EE03A4B5B6823F032
:1053AC0003027B685B68374913434B60FDF7BEFA19
:1053BC00F8600AE0FDF7BAFA0246FB68D31A41F22C
:1053CC008832934201D9032356E02E4B5B6803F0DD
:1053DC000C027B685B689B009A42EBD1284B1B68E4
:1053EC0003F007033A689A4210D2254B1B6823F04E
:1053FC00070223493B6813430B60214B1B6803F0E6
:10540C0007033A689A4201D0012335E07B681B6898
:10541C0003F00403002B08D01A4B5B6823F4E06202
:10542C007B68DB68174913434B607B681B6803F090
:10543C000803002B09D0134B5B6823F460527B6884
:10544C001B69DB000F4913434B6000F025F8014644
:10545C000C4B5B681B0903F00F030C4AA258D35C7E
:10546C0021FA03F20A4BE3581A600A4BE3581B6803
:10547C001846FDF709FA002318461437BD4690BDAF
:10548C000020024000100240B8B0FF176800000076
:10549C001C0000005000000080B487B000AF002357
:1054AC00FB600023BB6000237B6100237B60002337
:1054BC003B611F4B5B68FB60FB6803F00C03042B28
:1054CC0002D0082B03D029E01A4B3B6129E0FB6882
:1054DC009B0C03F00F03194A7A44D35C7B60FB6886
:1054EC0003F48033002B11D0114B5B685B0C03F081
:1054FC000103134A7A44D35CBB607B680D4A03FBFF
:10550C0002F2BB68B2FBF3F37B6104E07B680A4AEE
:10551C0002FB03F37B617B693B6102E0054B3B6162
:10552C0000BF3B6918461C37BD4680BC704700BFA6
:10553C000010024000127A0000093D00F8470000FC
:10554C00EC47000080B400AF044A7A44044BD358B3
:10555C001B681846BD4680BC704700BF32AEFF17B3
:10556C001C00000098B500AF094C7C44FFF7EAFF23
:10557C000146064B5B681B0A03F00703054AA25859
:10558C00D35C21FA03F3184698BD00BF001002400B
:10559C0012AEFF170000000098B500AF094C7C4418
:1055AC00FFF7D0FF0146064B5B68DB0A03F00703ED
:1055BC00054AA258D35C21FA03F3184698BD00BFE4
:1055CC0000100240DEADFF170000000080B485B073
:1055DC0000AF78600D4A7A440D4BD3581B680A4AC9
:1055EC00A2FB03235B0A7A6802FB03F3FB6000BF98
:1055FC00FB685A1EFA60002BF9D100BF00BF1437AC
:10560C00BD4680BC704700BFD34D6210A6ADFF17DE
:10561C001C00000080B586B000AF786000233B61B1
:10562C000023FB607B681B6803F00103002B7DD01B
:10563C000023FB754F4BDB6903F08053002B0DD11E
:10564C004C4BDB694B4A43F08053D361494BDB69CC
:10565C0003F08053BB60BB680123FB75464B1B6892
:10566C0003F48073002B18D1434B1B68424A43F45C
:10567C0080731360FDF75AF9386108E0FDF756F9AD
:10568C0002463B69D31A642B01D903236DE03A4BD4
:10569C001B6803F48073002BF0D0364B1B6A03F4A9
:1056AC004073FB60FB68002B2ED07B685B6803F4B7
:1056BC004073FA689A4227D02E4B1B6A23F440732E
:1056CC00FB602E4B01221A602C4B00221A60294AD7
:1056DC00FB681362FB6803F00103002B14D0FDF789
:1056EC0025F938610AE0FDF721F902463B69D31A26
:1056FC0041F28832934201D9032336E01D4B1B6AD9
:10570C0003F00203002BEED01A4B1B6A23F44072F9
:10571C007B685B68174913430B62FB7D012B05D13A
:10572C00144BDB69134A23F08053D3617B681B68ED
:10573C0003F00203002B08D00E4B5B6823F44042AD
:10574C007B689B680B4913434B607B681B6803F0B9
:10575C001003002B08D0074B5B6823F480027B6896
:10576C00DB68044913434B60002318461837BD46C9
:10577C0080BD00BF00100240007000404004424257
:10578C0080B582B000AF78607B68002B01D101231B
:10579C0041E07B6893F83D30DBB2002B06D17B688F
:1057AC00002283F83C207868FCF7D6FD7B68022247
:1057BC0083F83D207B681A687B68043319461046D1
:1057CC0000F0A2FA7B68012283F846207B68012254
:1057DC0083F83E207B68012283F83F207B680122FE
:1057EC0083F840207B68012283F841207B680122EA
:1057FC0083F842207B68012283F843207B680122D6
:10580C0083F844207B68012283F845207B680122C1
:10581C0083F83D20002318460837BD4680BD0000A4
:10582C0080B485B000AF78607B6893F83D30DBB214
:10583C00012B01D001233AE07B68022283F83D2042
:10584C007B681B68DA687B681B6842F00102DA60CF
:10585C007B681B68184A93420ED07B681B68B3F1B7
:10586C00804F09D07B681B68144A934204D07B6834
:10587C001B68134A934211D17B681B689B6803F029
:10588C000703FB60FB68062B10D07B681B681A684B
:10589C007B681B6842F001021A6007E07B681B689A
:1058AC001A687B681B6842F001021A6000231846D4
:1058BC001437BD4680BC7047002C014000040040EA
:1058CC000008004080B483B000AF78607B681B6830
:1058DC00DA687B681B6822F00102DA607B681B685F
:1058EC001A6A41F211131340002B0FD17B681B680D
:1058FC001A6A40F244431340002B07D17B681B68A3
:10590C001A687B681B6822F001021A607B6801220E
:10591C0083F83D20002318460C37BD4680BC7047E9
:10592C0080B582B000AF78607B681B681B6903F0A0
:10593C000203022B22D17B681B68DB6803F0020395
:10594C00022B1BD17B681B686FF002021A617B680B
:10595C0001221A777B681B689B6903F00303002BF9
:10596C0003D0786800F0B4F905E0786800F0A7F986
:10597C00786800F0B6F97B6800221A777B681B68A0
:10598C001B6903F00403042B22D17B681B68DB68C2
:10599C0003F00403042B1BD17B681B686FF004021B
:1059AC001A617B6802221A777B681B689B6903F477
:1059BC004073002B03D0786800F08AF905E0786812
:1059CC0000F07DF9786800F08CF97B6800221A777A
:1059DC007B681B681B6903F00803082B22D17B68CA
:1059EC001B68DB6803F00803082B1BD17B681B6862
:1059FC006FF008021A617B6804221A777B681B68B7
:105A0C00DB6903F00303002B03D0786800F060F926
:105A1C0005E0786800F053F9786800F062F97B686B
:105A2C0000221A777B681B681B6903F01003102B8C
:105A3C0022D17B681B68DB6803F01003102B1BD191
:105A4C007B681B686FF010021A617B6808221A775A
:105A5C007B681B68DB6903F44073002B03D0786808
:105A6C0000F036F905E0786800F029F9786800F064
:105A7C0038F97B6800221A777B681B681B6903F076
:105A8C000103012B0ED17B681B68DB6803F001035B
:105A9C00012B07D17B681B686FF001021A617868D3
:105AAC00FCF718F87B681B681B6903F08003802BDC
:105ABC000ED17B681B68DB6803F08003802B07D159
:105ACC007B681B686FF080021A61786800F07BFAC3
