:020000040800F2
:1000000000500020612400082D220008332200083F
:10001000392200083F2200084522000800000000A5
:100020000000000000000000000000004B2200085B
:100030005722000800000000632200086F22000819
:10004000A9240008A9240008A9240008A92400085C
:10005000A9240008A9240008A9240008A92400084C
:10006000A9240008A9240008A92400087D2200086A
:10007000A9240008A924000891220008A52200084C
:10008000A9240008A9240008A9240008A92400081C
:10009000A9240008A9240008A9240008B9220008FE
:1000A000A9240008D9220008A9240008A9240008CE
:1000B000ED220008A9240008A9240008A9240008AA
:1000C000A9240008A9240008A9240008A9240008DC
:1000D000A924000801230008A9240008A924000875
:1000E00015230008A9240008A92400080000000026
:1000F0000000000000000000000000000000000000
:0C01000000000000000000005FF808F1A3
:10010C0010B5054C237833B9044B13B10448AFF345
:10011C0000800123237010BD880300200000000024
:10012C00887C000808B5034B1BB103490348AFF3A7
:10013C00008008BD000000008C030020887C0008B3
:10014C0080B485B000AF78600023FB6016E0FB68DC
:10015C0003F5003301339B027A689A420BD2FB6899
:10016C0003F500339B027A689A4204D3FB6803F5CB
:10017C0000339B0206E0FB680133FB60FB687F2BBE
:10018C00E5DD002318461437BD4680BC70470000DF
:10019C00B0B58AB000AFF860B9601346FB8000239D
:1001AC007B6203F07FFAF868FFF7CAFF3862FB88BE
:1001BC009B001A46FB681344FB61F869FFF7C0FF0C
:1001CC00B861204B00221A601E4A3B6A9360BA69E0
:1001DC003B6AD31A9B0A01331A4AD36007F1140302
:1001EC001946184803F050FB0346002B1FD003F0B0
:1001FC008FFA034622E07B6A9B00BA6813441B68A3
:10020C0000221C46154622462B46F968022003F0B4
:10021C00D9F90346002B06D1FB680433FB607B6ADB
:10022C0001337B6203E003F073FA034606E0FB88BC
:10023C007A6A9A42DFDB03F05BFA00231846283710
:10024C00BD46B0BDA403002080B483B000AF78607D
:10025C004FF06043D3F8803E03F00103002B13D022
:10026C004FF06043D3F8003E03F00103002B0BD09A
:10027C0000E000BF4FF060431B68002BF9D04FF03B
:10028C0060437A68D2B21A707B6818460C37BD4648
:10029C0080BC704780B586B000AFF860B9607A60FA
:1002AC0000237B6109E0BB685A1CBA601B781846B6
:1002BC00FFF7CAFF7B6901337B617A697B689A42DD
:1002CC00F1DB7B6818461837BD4680BD80B582B01F
:1002DC0000AF0346FB71074806F04CFD064AFB795C
:1002EC001370054B1B78184600F020F800BF083738
:1002FC00BD4680BDA07C0008B403002080B582B050
:10030C0000AF0346FB71074806F034FD064AFB7943
:10031C001370054B1B78184600F008F800BF08371F
:10032C00BD4680BDB87C0008B403002080B582B007
:10033C0000AF0346FB71FB79032B33D801A252F8B3
:10034C0023F000BF6103000875030008890300084F
:10035C009D030008252002F078FE282002F075FE8F
:10036C00172002F072FE1EE0252002F06EFE2820FF
:10037C0002F05DFE172002F05AFE14E0252002F078
:10038C0056FE282002F061FE172002F05EFE0AE005
:10039C00252002F04CFE282002F049FE172002F026
:1003AC0046FE00E000BF00BF0837BD4680BD00BF61
:1003BC0080B500AF034806F0DDFC012002F0D2F856
:1003CC0000BF80BDD07C000880B500AF012002F0DA
:1003DC00C9F800BF80BD80B500AF012002F0C2F8A3
:1003EC0000BF80BD80B500AF034806F0C3FC012000
:1003FC0002F0B8F800BF80BDDC7C000880B500AF0F
:10040C00012002F0AFF800BF80BD000080B500AF46
:10041C0002F046F800F050F800F002FA00F0D2F9C1
:10042C0000F0A6F900F0D6F800F096F800F000F90C
:10043C0000F050F91D4B1B681D4A9B0113440433FB
:10044C001B689847194B1B68194A9B0113441B786E
:10045C001846FFF73BFF154B1B68154A9B011344CD
:10046C000C331B689847114B1B68114A9B011344B2
:10047C0001331B781846FFF741FF0C4B1B680C4AE5
:10048C009B01134408331B6898470346094A1360C1
:10049C00064B1A68074B1B680549120113440433B9
:1004AC0051F82330014A1360C4E700BF4406002012
:1004BC00180000204806002080B594B000AF07F16A
:1004CC00280328220021184606F0C6FB07F1140366
:1004DC0000221A605A609A60DA601A613B1D002291
:1004EC001A605A609A60DA600223BB620123BB6314
:1004FC001023FB6300237B6407F12803184604F0E8
:10050C006FFA0346002B01D001F0FEF90F237B613B
:10051C000023BB610023FB6100233B6200237B6251
:10052C0007F114030021184604F0DCFC0346002BF1
:10053C0001D001F0E9F902237B600023FB603B1D35
:10054C00184604F05DFE0346002B01D001F0DCF9E7
:10055C0000BF5037BD4680BD80B584B000AF3B1D99
:10056C0000221A605A609A60184B194A1A60174B8D
:10057C0000229A60154B00221A73144B00221A7534
:10058C00124B4FF46022DA61104B00225A600F4B71
:10059C0001221A610D4802F025F80346002B01D008
:1005AC0001F0B2F902237B600123BB600723FB60DF
:1005BC003B1D1946054802F029FA0346002B01D0D1
:1005CC0001F0A2F900BF1037BD4680BDB803002072
:1005DC000024014080B500AF124B134A1A60114B36
:1005EC00124A5A600F4B00229A600E4B0022DA60BE
:1005FC000C4B4FF480421A610A4B00225A61094B92
:10060C0000229A61074B0022DA61064B00221A6223
:10061C00044803F0C5FB0346002B01D001F074F92C
:10062C0000BF80BD2C04002000540040801A06003E
:10063C0080B586B000AF07F1080300221A605A603B
:10064C009A60DA603B4600221A605A601F4B204ABF
:10065C001A601E4B43F698225A601C4B00229A607B
:10066C001A4B43F69822DA60184B00221A61174B8A
:10067C0000225A61154B00229A61144804F076FE50
:10068C000346002B01D001F03FF94FF48053BB60BF
:10069C0007F1080319460D4805F040F80346002BF6
:1006AC0001D001F031F900233B6000237B603B4615
:1006BC001946064805F016FA0346002B01D001F046
:1006CC0023F900BF1837BD4680BD00BF8004002051
:1006DC00002C014080B586B000AF07F10803002262
:1006EC001A605A609A60DA603B4600221A605A60BF
:1006FC001E4B4FF080421A601C4B4FF4FA525A605A
:10070C001A4B00229A60194B4FF47A72DA60174B2D
:10071C0000221A61154B00229A61144804F026FE3F
:10072C000346002B01D001F0EFF84FF48053BB606F
:10073C0007F1080319460D4804F0F0FF0346002B9F
:10074C0001D001F0E1F800233B6000237B603B46C5
:10075C001946064805F0C6F90346002B01D001F0F6
:10076C00D3F800BF1837BD4680BD00BFC8040020B9
:10077C0080B500AF114B124A1A60104B4FF4165251
:10078C005A600E4B00229A600C4B0022DA600B4B25
:10079C0000221A61094B0C225A61084B00229A6103
:1007AC00064B0022DA61054805F00CFA0346002BD3
:1007BC0001D001F0A9F800BF80BD00BF10050020DA
:1007CC000038014080B582B000AF144B5B69134A0E
:1007DC0043F001035361114B5B6903F001037B6030
:1007EC007B68002200210B2002F005FC0B2002F09C
:1007FC001EFC002200210E2002F0FDFB0E2002F058
:10080C0016FC002200210F2002F0F5FB0F2002F055
:10081C000EFC00BF0837BD4680BD00BF0010024073
:10082C0080B588B000AF07F1100300221A605A603F
:10083C009A60DA60494B9B69484A43F01003936114
:10084C00464B9B6903F01003FB60FB68434B9B69B1
:10085C00424A43F004039361404B9B6903F0040349
:10086C00BB60BB683D4B9B693C4A43F008039361FA
:10087C003A4B9B6903F008037B607B6800224FF4C2
:10088C002041374803F043FA00226021354803F039
:10089C003EFA4FF420433B6101237B610023BB6193
:1008AC000223FB6107F1100319462D4803F094F85D
:1008BC0060233B6101237B610023BB610223FB614D
:1008CC0007F110031946274803F086F880233B6193
:1008DC00254B7B610023BB6107F1100319462148AE
:1008EC0003F07AF84FF4F8433B61204B7B61012312
:1008FC00BB6107F1100319461D4803F06DF84FF466
:10090C0002433B611B4B7B610123BB6107F110036D
:10091C001946174803F060F84FF480733B61134B92
:10092C007B610123BB6107F1100319460D4803F0ED
:10093C0053F800220021172002F05DFB172002F073
:10094C0076FB00220021282002F055FB282002F023
:10095C006EFB00BF2037BD4680BD00BF00100240BB
:10096C00001001400008014000001110000031107F
:10097C00000C01400000211080B500AF334806F098
:10098C00F9F9282002F061FB172002F05EFB00222F
:10099C004FF400512E4803F0BAF9032000F06AF826
:1009AC004FF47A7001F0DEFD06222A492A4805F040
:1009BC0059F94FF4FA7001F0D5FD03222749264866
:1009CC0005F050F9264B1B789BB21A462549224854
:1009DC0005F0B8F9224B1B7819461E4800F096F822
:1009EC001F4B06221A7001224FF40041184803F0E5
:1009FC008EF94FF47A7001F0B5FD00F08BFF44F6E0
:100A0C00206301227821184803F00CFC0346002BCC
:100A1C0009D04FF47A7001F0A5FD4FF400510C4849
:100A2C0003F08DF9F5E7114B114A1A6000F0C8F983
:100A3C00022000F01FF8282002F0F9FA172002F02B
:100A4C00F6FA012001F08EFD80BD00BFEC7C0008A1
:100A5C0000100140F093000810050020F8930008E6
:100A6C0016000020E40500202C0400204006002085
:100A7C00E90E000880B582B000AF0346FB71FB792C
:100A8C00032B37D801A252F823F000BFBF0A00088D
:100A9C00D50A0008EB0A0008A90A00080122202147
:100AAC00184803F034F901224021164803F02FF9BD
:100ABC0024E000222021134803F029F900224021D0
:100ACC00104803F024F919E0012220210D4803F00D
:100ADC001EF9002240210B4803F019F90EE0002208
:100AEC002021084803F013F901224021054803F0A6
:100AFC000EF903E0044806F03DF900BF00BF0837CB
:100B0C00BD4680BD00080140FC7C000880B584B067
:100B1C0000AF78600B46FB701D4806F02BF94FF4C4
:100B2C00FA7001F01FFD0023FB7329E0FB7B194ACF
:100B3C00D25CFB7B79680B441B789A421AD0164B1B
:100B4C0001221A60154B00221A70154806F012F992
:100B5C000023BB600AE00F4ABB6813441B7819469C
:100B6C00104806F081F8BB680133BB60BB68042BEE
:100B7C00F1DD09E0084B02221A60FB7B0133FB73A9
:100B8C00FA7BFB789A42D1D31037BD4680BD00BFAB
:100B9C00187D0008E4050020E00500202806002050
:100BAC00307D0008487D000880B584B000AFF86047
:100BBC00B9601346FB71224BDB7F002B26D0FB79EF
:100BCC001946F86800F040F80346012B1ED1F8686E
:100BDC0000F074F80346012B18D11A4BDB781A4637
:100BEC00174B134401225A71164BDB781946154BDF
:100BFC001A79134B0B44DA73124BDB781946114BF1
:100C0C005A790F4B0B441A75092314E00C4BDB7FFC
:100C1C00002B0FD1FB791946B86800F015F8034684
:100C2C00012B07D1B86800F049F80346012B01D11C
:100C3C00082300E00B2318461037BD4680BD00BFCB
:100C4C0008060020E405002080B584B000AF786071
:100C5C000B46FB700023FB7321E0FB7B144AD25C38
:100C6C00FB7B79680B441B789A4215D0114806F02F
:100C7C0081F80023BB600AE00D4ABB6813441B7863
:100C8C0019460D4805F0F0FFBB680133BB60BB682B
:100C9C000F2BF1DD002307E0FB7B0133FB73FA7BA9
:100CAC00FB789A42D9D3012318461037BD4680BD34
:100CBC00E4050020307D0008487D000880B582B036
:100CCC0000AF7860084BDB78052B07D9064BDB7837
:100CDC001946064805F0C8FF002300E0012318461A
:100CEC000837BD4680BD00BFE4050020647D0008C8
:100CFC0080B500AF144B1B68092B1FD801A252F80A
:100D0C0023F000BF390D00083D0D0008410D00080F
:100D1C00490D0008490D0008490D0008490D00084F
:100D2C00490D0008490D0008450D0008002309E095
:100D3C00002307E00B2305E0092303E000BF01209B
:100D4C0001F010FC184680BDE005002080B582B093
:100D5C0000AF104806F00EF801220F490F48FFF7BC
:100D6C0017FA00237B600AE04FF400510C4802F0A4
:100D7C00E6FFC82001F0F6FB7B6801337B60094B72
:100D8C001B685A007B689A42EED84FF47A7001F0D7
:100D9C00E9FBE6E7FC7C00080406002010000108D3
:100DAC0000100140E005002080B500AF012001F0EB
:100DBC00D9FB024B1B68984700BF80BD4006002042
:100DCC0080B500AF4FF480612E4802F089FF0346D6
:100DDC00002B0CBF01230023DBB21A462A4B1A70DE
:100DEC004FF40061274802F07BFF0346002B0CBF39
:100DFC0001230023DBB21A46234B5A704FF4805167
:100E0C00204802F06DFF0346002B0CBF012300238A
:100E1C00DBB21A461C4B9A704FF40051194802F081
:100E2C005FFF0346002B0CBF01230023DBB21A46E5
:100E3C00154BDA704FF48041124802F051FF034613
:100E4C00002B0CBF01230023DBB21A460E4B1A7188
:100E5C004FF480710D4802F043FF0346002B0CBF8A
:100E6C0001230023DBB21A46074B1A7700F012F865
:100E7C00074B1B68DAB2044B9A76012001F072FB27
:100E8C0000BF80BD000C0140080600200008014096
:100E9C00FC05002080B500AF0B4805F06BFF02226B
:100EAC000A490B4801F076FC322001F05BFB094B40
:100EBC001B68322B03D8074B1B68092B02D806483A
:100ECC0005F058FF00BF80BDA07D0008F80500208C
:100EDC00B8030020FC050020B07D000880B582B06E
:100EEC0000AF252002F0B1F8282002F0AEF8172050
:100EFC0002F0ABF8002000F0FFFD0023FB719CE03A
:100F0C00FB79724AD35C012B22D1FB7901339BB262
:100F1C001A46520013449B009BB21946002000F065
:100F2C0061FE01226A496B4800F0F2FEFB79013345
:100F3C00DBB20121184600F085F903460122644911
:100F4C00184600F0E5FE01226149634800F0E0FE1E
:100F5C00FB795E4A13445B79012B14D1FB799BB26C
:100F6C001A46520013449B009BB21946282000F0ED
:100F7C0039FE01225649594800F0CAFEFB79534A02
:100F8C00134400225A71FB79504A1344DB7B012B2A
:100F9C0014D1FB799BB21A46520013449B009BB2AE
:100FAC001946322000F01EFE012249494C4800F03F
:100FBC00AFFEFB79454A13440022DA73FB79434AAE
:100FCC0013441B7D062B35D9FB799BB21A46520074
:100FDC0013449B009BB219463C2000F003FEFB79A6
:100FEC003A4A13441B7D0A21184600F02BF903469C
:100FFC0001223749184600F08BFE0122344939484A
:10100C0000F086FEFB79314A13441B7D0121184602
:10101C0000F018F9034601222D49184600F078FE1D
:10102C0001222B49304800F073FEFB79274A134408
:10103C0000221A75FB790133FB71FB79042B7FF6C7
:10104C005FAF0021002000F0CDFD01222049274890
:10105C0000F05EFE1D4B1B7F012B08D100211E20D2
:10106C0000F0C0FD01221A49214800F051FE002178
:10107C002D2000F0B7FD012215491E4800F048FE56
:10108C00124B9B7E0A21184600F0DCF80346012225
:10109C000F49184600F03CFE01220D49114800F0A2
:1010AC0037FE0A4B9B7E0121184600F0CBF8034615
:1010BC0001220749184600F02BFE00F0EFFC32200D
:1010CC0001F050FA00BF0837BD4680BD080600206D
:1010DC0000000020C07D0008C87D0008CC7D000801
:1010EC00D07D0008D47D0008D87D0008E07D000884
:1010FC00E87D0008EC7D000880B586B000AF2520A7
:10110C0001F0A3FF282001F0A0FF172001F09DFFA4
:10111C00434805F02FFE07F108037B613B1D3B6143
:10112C00002000F0E9FC0021002000F05BFD3D4BAD
:10113C001B78012B08D101223B493C4800F0E8FD0B
:10114C00384B00221A7062E0394B1B78012B08D106
:10115C0001223549374800F0DBFD354B00221A706F
:10116C0055E001223049344800F0D2FD1E212820E0
:10117C0000F038FD314BDB7F092B3AD92F4BDB7F4D
:10118C002F4AA2FB0323DB08DBB23033BB732B4BA0
:10119C00DA7F2A4BDB7F2A49A1FB0313DB08DBB286
:1011AC00194689000B445B00DBB2D31ADBB2303337
:1011BC007B7307F108037B61BA7B7B691A607B69DF
:1011CC001B681A1D3B691A607A7B3B691A6007F130
:1011DC00080301221449184600F09AFD1E21302004
:1011EC0000F000FD3B1D01220F49184600F090FD58
:1011FC000DE0124BDB7F3033FB73FA7B7B691A609B
:10120C0007F1080301220849184600F081FD00F09F
:10121C0045FC012001F0A6F900BF1837BD4680BD82
:10122C00F47D00082A06002008000020087E000833
:10123C002B060020147E00081C7E000808060020E7
:10124C00CDCCCCCC80B489B000AF03460A46FB7140
:10125C001346BB71614BFB61614BBB61614B7B61A5
:10126C00FB79092B0CD8BB79012B01D95E4BAFE074
:10127C00FB793033BB73FB69BA7B1A70574BA7E011
:10128C00FB79632B6FD9FB79584AA2FB03235B09CB
:10129C00DBB230337B74FB79544AA2FB03235B092A
:1012AC00DBB21A46920013441A4691001A460B46BA
:1012BC0013449B00DBB2FA79D31ADBB24C4AA2FB83
:1012CC000323DB08DBB230333B74FB79474AA2FBC8
:1012DC0003235B09DBB21A46920013441A469100B1
:1012EC001A460B4613449B00DBB2FA79D31ADAB2D6
:1012FC00F979FB793D48A0FB03035B09DBB2184687
:10130C006FF0630300FB03F30B443A4981FB0301C9
:10131C008910DB17CB1ADBB2194689000B445B0032
:10132C00DBB2D31ADBB23033FB732C4B1B68FB6183
:10133C00FB697A7C1A70FB691B780433DAB2BB69DF
:10134C001A70BB693A7C1A70BB79642B01D1234BA0
:10135C003EE0BB790A2B01D1214B39E0BB79012B43
:10136C0036D1204B34E0BB79642B01D11E4B2FE0DE
:10137C00FB791F4AA2FB0323DB08DBB23033FB747F
:10138C00FB791B4AA2FB0323DB08DBB21A46920053
:10139C0013445B00DBB2FA79D31ADBB23033BB7483
:1013AC000E4BFB61FB69FA7C1A70FB691B780433EA
:1013BC00DAB2BB691A70BB69BA7C1A70BB790A2B9A
:1013CC0001D1064B04E0BB79012B01D1044BFFE7A3
:1013DC0018462437BD4680BC704700BF3406002039
:1013EC00380600203C060020247E00081F85EB51A7
:1013FC00CDCCCCCC6766666680B500AF0A4805F0EC
:10140C00B9FC0A4804F002F801F0D0F801210120DF
:10141C0003F098FA01F0D8F8044804F049F80120D8
:10142C0001F0A0F800BF80BD287E000880040020D9
:10143C0080B500AF012001F095F8024B1B781846DF
:10144C0080BD00BF2806002080B500AF0E4805F017
:10145C0091FC00F082FCAE220021782000F000FD0F
:10146C0001F0A4F80121012003F088FA01F0ACF896
:10147C00AF220021782000F0F3FC4FF47A7001F0D9
:10148C0071F800BF80BD00BF347E000880B582B00B
:10149C0000AF474805F06EFC464B1B78022B06D07C
:1014AC00022B70DC002B28D0012B07D06BE04248BC
:1014BC0005F060FC414B07221A606BE0404B1B7837
:1014CC00002B05D13C4805F055FC3C4B07221A601B
:1014DC000120FFF7CFFA0A2001F044F8062239491F
:1014EC00394804F0BFFB642001F03CF8374B242250
:1014FC00DA77304B02221A704CE0354B1B78002BFC
:10150C0005D12D4805F036FC2C4B07221A602F4BC9
:10151C001B7F002B48D00120FFF7ACFA0A2001F00A
:10152C0021F82C4B00221A710023FB7119E00123C6
:10153C00BB71FB79254AD35C012B0FD197F906209F
:10154C00FB79013302FA03F3BB71224B1B795AB2BC
:10155C00BB7913435BB2DAB21E4B1A71FB790133C0
:10156C00FB71FB79042BE2D906221A49164804F0C8
:10157C0079FB642000F0F6FF144B0622DA770D4B52
:10158C0002221A7006E00D4B07221A600A4805F079
:10159C00F1FB00BF104B114A1A60084B09221A606C
:1015AC00012000F0DFFF00E000BF0837BD4680BD22
:1015BC00447E000817000020547E0008E00500203F
:1015CC002B060020FC9300081005002008060020C4
:1015DC002A060020100000204006002005110008FB
:1015EC0080B500AF284805F0C5FB284B1B78052BB0
:1015FC0013D8012000F0B6FF4FF47A7000F0B2FF60
:10160C00234BDB7F013BDAB2214BDA771F4B1B7884
:10161C000133DAB21D4B1A7026E00020FFF72AFACC
:10162C001C4803F0F3FE00F0C1FF0121012003F080
:10163C0089F900F0C9FF184805F09CFB174B1B7883
:10164C00012B11D1134803F033FF114BDB7F013B0E
:10165C00DAB20F4BDA770D4B1B780133DAB20B4B46
:10166C001A700E4B00221A70094BDB7F002B08D12D
:10167C000320FFF7FFF90A4B0B221A70094B0A4A99
:10168C001A6000BF80BD00BF687E00082D060020D8
:10169C0008060020C8040020787E000831060020CF
:1016AC002806002040060020E90E000880B500AF97
:1016BC00032203490348FFF777FA0346184680BD17
:1016CC000C9400080494000880B582B000AF7860D8
:1016DC000B467B80104805F04DFB7B681B680F4A5E
:1016EC00934215D10E4B01221A700E4B02221A7026
:1016FC000D4B1B789BB21A460C490D4804F022FB8B
:10170C000C4B1B681A680B4B1B6822F004021A6006
:10171C0000BF0837BD4680BD907E000800380140F0
:10172C00290600202806002016000020E4050020D1
:10173C00100500205805002080B584B000AF03468A
:10174C00FB800023FB6002E0FB680133FB60FB685D
:10175C00002BF9D02C4805F00DFBFB88B3F5806FFE
:10176C0013D0FB88B3F5006F0FD0FB88B3F5805F07
:10177C000BD0FB88B3F5005F07D0FB88B3F5804F27
:10178C0003D0FB88B3F5807F08D1204805F0F2FA2E
:10179C001F4B01221A701F4B01221A70FB88B3F5E4
:1017AC00004F14D1194805F0E5FA194B05221A70AF
:1017BC00184B01221A70184B01221A70174B012278
:1017CC001A70174B00221A70164B00221A70FB88E5
:1017DC00B3F5007F14D1144805F0CCFA0C4B04225D
:1017EC001A700C4B01221A70104B01221A700D4BFF
:1017FC0001221A700E4B01221A700E4B00221A7025
:10180C0000BF1037BD4680BDAC7E0008C47E00080A
:10181C0028060020290600202A0600202C0600207D
:10182C002D06002017000020E87E00082B06002063
:10183C002E0600202F06002080B582B000AF786005
:10184C007B681B68094A93420CD1094801F080F867
:10185C00084B1B88084AA2FB03239B099BB21A4620
:10186C00064B1A6000BF0837BD4680BD00240140FE
:10187C00B8030020F8050020A38B2EBAFC0500202D
:10188C0080B582B000AF78607B681B68164A9342C3
:10189C000DD1164B01221A70154B01221A704FF400
:1018AC000051144802F04BFA134B07221A707B6854
:1018BC001B68B3F1804F12D1104805F05BFA0B4B4B
:1018CC0001221A700E4B01221A700B4B09221A704E
:1018DC000C4BDB7F002B02D1074B0B221A7000BF85
:1018EC000837BD4680BD00BF002C014029060020F2
:1018FC00300600200010014028060020087F000858
:10190C00310600200806002080B400AF72B600BF7C
:10191C00FEE7000080B582B000AF00F027FA44F675
:10192C002063012278215B4802F07CFC0346002BEB
:10193C0001D00023A9E040F6C4137B6002E07B6871
:10194C00013B7B607B68002BF9D1AE220021782013
:10195C0000F086FA20220021782000F081FA102273
:10196C000021782000F07CFAB0220021782000F0D1
:10197C0077FAC8220021782000F072FA00220021A8
:10198C00782000F06DFA10220021782000F068FA1F
:10199C0040220021782000F063FA81220021782077
:1019AC0000F05EFAFF220021782000F059FAA12203
:1019BC000021782000F054FAA6220021782000F0B3
:1019CC004FFAA8220021782000F04AFA3F22002189
:1019DC00782000F045FAA4220021782000F040FA8B
:1019EC00D3220021782000F03BFA0022002178203D
:1019FC0000F036FAD5220021782000F031FAF022DE
:101A0C000021782000F02CFAD9220021782000F057
:101A1C0027FA22220021782000F022FADA22002173
:101A2C00782000F01DFA12220021782000F018FA1C
:101A3C00DB220021782000F013FA202200217820EC
:101A4C0000F00EFA8D220021782000F009FA142201
:101A5C000021782000F004FAAF220021782000F059
:101A6C00FFF92E220021782000F0FAF9002000F076
:101A7C0043F800F013F8084B00221A80064B0022A2
:101A8C005A80054B01225A71012318460837BD466E
:101A9C0080BD00BF2C0400204C0A002080B582B011
:101AAC0000AF0023FB711DE0FB79503BDBB21A4603
:101ABC000021782000F0D4F900220021782000F0D9
:101ACC00CFF910220021782000F0CAF9FB79DB0154
:101ADC00084A1A4480234021782000F05BF9FB79F6
:101AEC000133FB71FB79072BDED900BF00BF083730
:101AFC00BD4680BD4C06002080B582B000AF0346C9
:101B0C00FB71FB79002B01D1002300E0FF234FF484
:101B1C0080621946034805F09FF800BF0837BD46A0
:101B2C0080BD00BF4C06002080B483B000AF0346DC
:101B3C00FB800B46BB801346FB70FB887F2B48D881
:101B4C00BB883F2B45D8254B1B79002B06D0FB7847
:101B5C00002B0CBF01230023DBB2FB70FB78012BA5
:101B6C001AD1FA88BB88DB0898B20346DB01134410
:101B7C001B4AD35C5AB2BB8803F00703012101FA5C
:101B8C0003F35BB2134359B2FA880346DB011344E7
:101B9C00C9B2134AD1541DE0FA88BB88DB0898B24D
:101BAC000346DB0113440E4AD35C5AB2BB8803F0E4
:101BBC000703012101FA03F35BB2DB435BB2134071
:101BCC0059B2FA880346DB011344C9B2044AD15412
:101BDC0000E000BF0C37BD4680BC70474C0A0020AB
:101BEC004C06002080B483B000AF03460A46FB804D
:101BFC001346BB80054AFB881380044ABB8853807C
:101C0C0000BF0C37BD4680BC704700BF4C0A00209B
:101C1C0080B586B000AF03463960FB711346BB71CB
:101C2C003A4B1B881A463B681B7813447F2B07DC06
:101C3C00364B5B881A463B685B7813443F2B01DDBF
:101C4C0000235EE000237B614BE03B685A68FB7924
:101C5C00203B3968497801FB03F319467B690B4437
:101C6C005B0013441B88FB6000233B6130E0FA6887
:101C7C003B6902FA03F303F40043002B10D0234B0F
:101C8C001A883B699BB2134498B2204B5A887B69E3
:101C9C009BB213449BB2BA791946FFF745FF14E087
:101CAC001A4B1A883B699BB2134498B2174B5A884B
:101CBC007B699BB2134499B2BB79002B0CBF0123F7
:101CCC000023DBB21A46FFF72FFF3B6901333B6160
:101CDC003B681B781A463B699342C8D37B69013336
:101CEC007B613B685B781A467B699342ADD3074BAB
:101CFC001A883B681B789BB213449AB2034B1A8028
:101D0C00FB7918461837BD4680BD00BF4C0A002031
:101D1C0080B584B000AFF860B9601346FB7112E077
:101D2C00FB681B78FA79B9681846FFF771FF034610
:101D3C001A46FB681B789A4202D0FB681B7808E0B5
:101D4C00FB680133FB60FB681B78002BE8D1FB6858
:101D5C001B7818461037BD4680BD80B500AF0020FB
:101D6C00FFF7CAFEFFF79AFE00BF80BD80B483B0B8
:101D7C0000AF074B7B6002E07B68013B7B607B68BC
:101D8C00002BF9D100BF00BF0C37BD4680BC70479B
:101D9C0090D0030090B5C7B002AF0446084607F5D3
:101DAC008871A1F588710A60194607F58873A3F24A
:101DBC00091322461A7007F58873A3F5857302463A
:101DCC001A7007F58873A3F586730A461A8007F50F
:101DDC008873A3F5827307F58872A2F58572127861
:101DEC001A70002387F80F3115E097F80F3107F5BB
:101DFC008872A2F5887212681A4497F80F31013371
:101E0C00117807F58872A2F58272D15497F80F31C8
:101E1C00013387F80F3197F80F319BB207F58872B1
:101E2C00A2F5867212889A42DFD807F58873A3F25E
:101E3C0009131B7899B207F58873A3F586731B8871
:101E4C0001339BB207F10C020A200090034802F008
:101E5C00EBF800BF07F58A77BD4690BD2C04002037
:101E6C0080B586B002AF0346FB710B46BB711346BF
:101E7C007B71BB793B737B797B73FB7999B207F1EF
:101E8C000C020A2300930223034802F0CDF800BF92
:101E9C001037BD4680BD00BF2C04002080B485B037
:101EAC0000AF154B9B69144A43F001039361124B2D
:101EBC009B6903F00103BB60BB680F4BDB690E4AE7
:101ECC0043F08053D3610C4BDB6903F080537B6090
:101EDC007B680A4B5B68FB60FB6823F0E063FB608C
:101EEC00FB6843F00073FB60044AFB68536000BF5F
:101EFC001437BD4680BC7047001002400000014002
:101F0C0080B588B000AF786007F1100300221A602A
:101F1C005A609A60DA607B681B68284A934249D100
:101F2C00274B9B69264A43F400739361244B9B69AE
:101F3C0003F40073FB60FB68214B9B69204A43F060
:101F4C00040393611E4B9B6903F00403BB60BB68E5
:101F5C0004233B6103237B6107F1100319461948E5
:101F6C0001F03AFD184B194A1A60174B00225A60BF
:101F7C00154B00229A60144B8022DA60124B4FF4FE
:101F8C0080721A61104B4FF480625A610E4B002222
:101F9C009A610D4B0022DA610B4801F071F803468F
:101FAC00002B01D0FFF7B0FC7B68074A1A62064A87
:101FBC007B68536200BF2037BD4680BD00240140C2
:101FCC000010024000080140E80300200800024015
:101FDC0080B588B000AF786007F1100300221A605A
:101FEC005A609A60DA607B681B68154A934223D169
:101FFC00144B9B69134A43F008039361114B9B6983
:10200C0003F00803FB60FB68C0233B6112237B6178
:10201C000323FB6107F1100319460B4801F0DCFCAC
:10202C00084BDB69074A43F40013D361054BDB69AA
:10203C0003F40013BB60BB6800BF2037BD4680BDF6
:10204C000054004000100240000C014080B584B0E8
:10205C0000AF78607B681B681A4A934214D11A4B04
:10206C009B69194A43F400639361174B9B6903F412
:10207C000063FB60FB6800220021192000F0BBFF0D
:10208C00192000F0D4FF18E07B681B68B3F1804F77
:10209C0013D10D4BDB690C4A43F00103D3610A4B9E
:1020AC00DB6903F00103BB60BB68002200211C202C
:1020BC0000F0A1FF1C2000F0BAFF00BF1037BD4696
:1020CC0080BD00BF002C01400010024080B588B0DC
:1020DC0000AF786007F1100300221A605A609A6012
:1020EC00DA607B681B68474A934240F08680464B17
:1020FC009B69454A43F480439361434B9B6903F4CA
:10210C008043FB60FB68404B9B693F4A43F00403F0
:10211C0093613D4B9B6903F00403BB60BB684FF4B8
:10212C0000733B6102237B610323FB6107F1100306
:10213C001946364801F050FC4FF480633B61002394
:10214C007B610023BB6107F1100319462F4801F096
:10215C0043FC2F4B2F4A1A602D4B00225A602C4BFC
:10216C0000229A602A4B8022DA60294B00221A61E5
:10217C00274B00225A61264B00229A61244B0022E5
:10218C00DA61234800F07CFF0346002B01D0FFF7F7
:10219C00BBFB7B681E4ADA631D4A7B6853621E4B8D
:1021AC001E4A1A601C4B10225A601B4B00229A606C
:1021BC00194B8022DA60184B00221A61164B002250
:1021CC005A61154B00229A61134B0022DA611248B6
:1021DC0000F056FF0346002B01D0FFF795FB7B6800
:1021EC000D4A9A630C4A7B68536200220021252019
:1021FC0000F001FF252000F01AFF00BF2037BD467C
:10220C0080BD00BF003801400010024000080140B2
:10221C0058050020580002409C0500204400024054
:10222C0080B400AFFEE780B400AFFEE780B400AF2F
:10223C00FEE780B400AFFEE780B400AFFEE780B4E9
:10224C0000AF00BFBD4680BC704780B400AF00BF7C
:10225C00BD4680BC704780B400AF00BFBD4680BC9B
:10226C00704780B500AF00F061F900BF80BD000081
:10227C0080B500AF024801F071F800BF80BD00BF0F
:10228C00E803002080B500AF024801F067F800BFFA
:10229C0080BD00BF9C05002080B500AF024801F056
:1022AC005DF800BF80BD00BF5805002080B500AFB1
:1022BC00802001F05DFD4FF4807001F059FD4FF46A
:1022CC00007001F055FD00BF80BD000080B500AF6F
:1022DC00024803F01BF900BF80BD00BF8004002042
:1022EC0080B500AF024803F011F900BF80BD00BFFC
:1022FC00C804002080B500AF024803F081FD00BF88
:10230C0080BD00BF1005002080B500AF4FF4806089
:10231C0001F02EFD4FF4006001F02AFD4FF48050C7
:10232C0001F026FD4FF4005001F022FD4FF48040E7
:10233C0001F01EFD4FF4004001F01AFD00BF80BDFE
:10234C0080B586B000AFF860B9607A6000237B611D
:10235C000AE0AFF300800146BB685A1CBA60CAB2EF
:10236C001A707B6901337B617A697B689A42F0DB76
:10237C007B6818461837BD4680BD80B483B000AF6B
:10238C0078604FF0FF3318460C37BD4680BC704761
:10239C0080B483B000AF786039603B684FF4005272
:1023AC005A60002318460C37BD4680BC704780B479
:1023BC0083B000AF7860012318460C37BD4680BC53
:1023CC00704780B485B000AFF860B9607A600023C4
:1023DC0018461437BD4680BC7047000080B586B0E7
:1023EC0000AF7860144A154BD31A7B617B693B6153
:1023FC00134B1B68002B02D1114B124A1A60104B65
:10240C001A687B6813443A699A4207D204F0FAFBC3
:10241C0003460C221A604FF0FF3309E0084B1B688F
:10242C00FB60074B1A687B681344054A1360FB6812
:10243C0018461837BD4680BD00500020000400002F
:10244C00540A0020900A002080B400AF00BFBD46A3
:10245C0080BC7047FFF7F8FF0B480C490C4A00236F
:10246C0002E0D458C4500433C4188C42F9D3094A3E
:10247C00094C002301E013600432A242FBD304F0A8
:10248C00C7FBFDF7C3FF7047000000208803002046
:10249C00E094000888030020900A0020FEE700006A
:1024AC0080B500AF084B1B68074A43F0100313605C
:1024BC00032000F095FD0F2000F008F8FFF7EEFC6C
:1024CC000023184680BD00BF0020024080B582B0BA
:1024DC0000AF7860124B1A68124B1B7819464FF4F8
:1024EC007A73B3FBF1F3B2FBF3F3184600F0BBFDC8
:1024FC000346002B01D001230EE07B680F2B0AD87A
:10250C00002279684FF0FF3000F075FD064A7B68B9
:10251C001360002300E0012318460837BD4680BD38
:10252C0018030020200300201C03002080B400AFFF
:10253C00054B1B781A46054B1B681344034A136062
:10254C0000BFBD4680BC704720030020580A002005
:10255C0080B400AF024B1B681846BD4680BC704768
:10256C00580A002080B584B000AF7860FFF7F0FF08
:10257C00B8607B68FB60FB68B3F1FF3F05D00A4B8A
:10258C001B781A46FB681344FB6000BFFFF7E0FFA3
:10259C000246BB68D31AFA689A42F7D800BF00BF4C
:1025AC001037BD4680BD00BF2003002080B400AFB3
:1025BC00044B1B68034A23F00203136000BFBD46A3
:1025CC0080BC704710E000E080B400AF044B1B6887
:1025DC00034A43F00203136000BFBD4680BC704742
:1025EC0010E000E080B586B000AF78600023FB758A
:1025FC0000233B610023BB600023FB607B68002B46
:10260C0001D10123BEE07B689B68002B7B689B6A31
:10261C00002B09D17B680022DA627B68002283F8E8
:10262C0024207868FFF76CFC786800F041FB0346C7
:10263C00FB757B689B6A03F01003002B40F09980BC
:10264C00FB7D002B40F095807B689B6A23F48853BC
:10265C0023F0020343F002027B689A627B685A689B
:10266C007B68DB691A437B681B7B5B001343BA688E
:10267C001343BB607B689B68B3F5807F03D07B689A
:10268C009B68012B02D14FF4807300E000233A6960
:10269C0013433B617B681B7D012B19D17B681B7B32
:1026AC00002B09D17B689B69013B5A033B6913439F
:1026BC0043F400633B610BE07B689B6A43F02002B0
:1026CC007B689A627B68DB6A43F001027B68DA62A2
:1026DC007B681B685B6823F469417B681B683A69FB
:1026EC000A435A607B681B689A68284B13407A68C7
:1026FC001268B9680B4393607B689B68B3F5807F65
:10270C0003D07B689B68012B04D17B681B69013B60
:10271C001B05FB607B681B68DB6A23F470017B681C
:10272C001B68FA680A43DA627B681B689A68184B64
:10273C001340BA689A420BD17B680022DA627B683C
:10274C009B6A23F0030343F001027B689A6218E052
:10275C007B689B6A23F0120343F010027B689A6239
:10276C007B68DB6A43F001027B68DA620123FB754C
:10277C0007E07B689B6A43F010027B689A62012336
:10278C00FB75FB7D18461837BD4680BDFDF7E1FF94
:10279C00FE0E1FFF80B586B000AFF860B9607A609E
:1027AC000023FB75FB681B68644A934204D0FB68EA
:1027BC001B68634A934206D1604B5B6803F4702339
:1027CC00002B40F0B380FB6893F82430012B01D12F
:1027DC000223AEE0FB68012283F82420F86800F0A5
:1027EC000DFA0346FB75FB7D002B40F09A80FB68CD
:1027FC009B6A23F4706323F0010343F48072FB683B
:10280C009A62FB681B684E4A934205D14B4B5B683E
:10281C0003F47023002B15D1FB689B6A23F4801200
:10282C00FB689A62FB681B685B6803F48063002B8F
:10283C0026D0FB689B6A23F4405343F48052FB6818
:10284C009A621DE0FB689B6A43F48012FB689A62F3
:10285C00FB681B68394A934204D0FB681B68384AF2
:10286C0093420DD1354B5B6803F48063002B07D08A
:10287C00FB689B6A23F4405343F48052FB689A62D2
:10288C00FB689B6A03F48053002B06D0FB68DB6A61
:10289C0023F00602FB68DA6202E0FB680022DA62CF
:1028AC00FB68002283F82420FB681B6A254A9A6285
:1028BC00FB681B6A244ADA62FB681B6A234A1A63A8
:1028CC00FB681B686FF002021A60FB681B689A6851
:1028DC00FB681B6842F480729A60FB68186AFB689C
:1028EC001B684C331946BA687B6800F023FCFB6804
:1028FC001B689B6803F46023B3F5602F08D1FB6859
:10290C001B689A68FB681B6842F4A0029A600FE08F
:10291C00FB681B689A68FB681B6842F480129A601B
:10292C0006E0FB68002283F8242001E00123FB75FC
:10293C00FB7D18461837BD4680BD00BF0024014002
:10294C00002801403F2D0008BB2D0008D72D0008A2
:10295C0080B584B000AF78600023FB737B6893F87C
:10296C002430012B01D102233AE07B68012283F849
:10297C002420786800F09CF90346FB73FB7B002B4A
:10298C0029D17B681B689A687B681B6822F480726B
:10299C009A607B681B6A93F82130DBB2022B1AD148
:1029AC007B681B6A184600F025FC0346FB73FB7B17
:1029BC00002B0AD17B689B6A23F4885323F0010314
:1029CC0043F001027B689A6205E07B689B6A43F0E6
:1029DC0040027B689A627B68002283F82420FB7B90
:1029EC0018461037BD4680BD80B483B000AF786008
:1029FC0000BF0C37BD4680BC704780B483B000AFBD
:102A0C00786000BF0C37BD4680BC704780B485B081
:102A1C0000AF786039600023FB730023BB607B68D8
:102A2C0093F82430012B01D10223DCE07B680122D6
:102A3C0083F824203B685B68062B1CD87B681B68DA
:102A4C00596B3B685A6813469B001344053B1F2285
:102A5C0002FA03F3DB4319403B6818683B685A6879
:102A6C0013469B001344053B00FA03F27B681B687A
:102A7C000A435A633CE03B685B680C2B1CD87B68B0
:102A8C001B68196B3B685A6813469B001344233B25
:102A9C001F2202FA03F3DB4319403B6818683B68BA
:102AAC005A6813469B001344233B00FA03F27B68DD
:102ABC001B680A431A631BE07B681B68D96A3B6876
:102ACC005A6813469B001344413B1F2202FA03F33E
:102ADC00DB4319403B6818683B685A6813469B00F7
:102AEC001344413B00FA03F27B681B680A43DA6229
:102AFC003B681B68092B1CD97B681B68D9683B6831
:102B0C001A6813465B0013441E3B072202FA03F3B8
:102B1C00DB4319403B6898683B681A6813465B00B6
:102B2C0013441E3B00FA03F27B681B680A43DA600D
:102B3C0019E07B681B6819693B681A6813465B00CF
:102B4C001344072202FA03F3DB4319403B689868ED
:102B5C003B681A6813465B00134400FA03F27B6867
:102B6C001B680A431A613B681B68102B03D03B6837
:102B7C001B68112B32D17B681B681D4A934225D1EF
:102B8C007B681B689B6803F40003002B26D17B68D1
:102B9C001B689A687B681B6842F400029A603B6869
:102BAC001B68102B1AD1134B1B68134AA2FB03236F
:102BBC009A0C13469B0013445B00BB6002E0BB689D
:102BCC00013BBB60BB68002BF9D107E07B689B6ABB
:102BDC0043F020027B689A620123FB737B6800221E
:102BEC0083F82420FB7B18461437BD4680BC704705
:102BFC00002401401803002083DE1B4380B584B001
:102C0C0000AF78600023FB600023BB607B681B680F
:102C1C009B6803F00103012B40D07B681B689A680A
:102C2C007B681B6842F001029A601F4B1B681F4AAD
:102C3C00A2FB03239B0CBB6002E0BB68013BBB60A7
:102C4C00BB68002BF9D1FFF783FCF8601FE0FFF79E
:102C5C007FFC0246FB68D31A022B18D97B681B68D1
:102C6C009B6803F00103012B11D07B689B6A43F036
:102C7C0010027B689A627B68DB6A43F001027B6816
:102C8C00DA627B68002283F82420012307E07B684A
:102C9C001B689B6803F00103012BD8D10023184655
:102CAC001037BD4680BD00BF1803002083DE1B43D8
:102CBC0080B584B000AF78600023FB607B681B6834
:102CCC009B6803F00103012B2ED17B681B689A686B
:102CDC007B681B6822F001029A60FFF739FCF860F0
:102CEC001BE0FFF735FC0246FB68D31A022B14D904
:102CFC007B681B689B6803F00103012B0DD17B687B
:102D0C009B6A43F010027B689A627B68DB6A43F033
:102D1C0001027B68DA62012307E07B681B689B6811
:102D2C0003F00103012BDCD0002318461037BD46FD
:102D3C0080BD80B584B000AF78607B685B6AFB6057
:102D4C00FB689B6A03F05003002B27D1FB689B6A3E
:102D5C0043F40072FB689A62FB681B689B6803F47F
:102D6C006023B3F5602F15D1FB681B7B002B11D1B1
:102D7C00FB689B6A23F48072FB689A62FB689B6A0F
:102D8C0003F48053002B05D1FB689B6A43F00102CE
:102D9C00FB689A62F868FEF74FFD04E0FB681B6A5B
:102DAC001B6B7868984700BF1037BD4680BD80B557
:102DBC0084B000AF78607B685B6AFB60F868FFF7F3
:102DCC0013FE00BF1037BD4680BD80B584B000AF88
:102DDC0078607B685B6AFB60FB689B6A43F040022F
:102DEC00FB689A62FB68DB6A43F00402FB68DA62F8
:102DFC00F868FFF702FE00BF1037BD4680BD00002B
:102E0C0080B485B000AF78607B6803F00703FB608B
:102E1C000C4BDB68BB60BA684FF6FF031340BB601A
:102E2C00FB681A02BB68134343F0BF6343F40033DF
:102E3C00BB60044ABB68D36000BF1437BD4680BC7E
:102E4C00704700BF00ED00E080B400AF044BDB68BE
:102E5C001B0A03F007031846BD4680BC704700BF31
:102E6C0000ED00E080B483B000AF0346FB7197F92E
:102E7C000730002B0BDBFB7903F01F02064997F997
:102E8C0007305B09012000FA02F241F8232000BF51
:102E9C000C37BD4680BC704700E100E080B483B0C5
:102EAC0000AF0346FB7197F90730002B12DBFB795F
:102EBC0003F01F020A4997F907305B09012000FA59
:102ECC0002F2203341F82320BFF34F8F00BFBFF332
:102EDC006F8F00BF00BF0C37BD4680BC704700BF72
:102EEC0000E100E080B483B000AF03463960FB71B1
:102EFC0097F90730002B0ADB3B68DAB20C4997F9DB
:102F0C0007301201D2B20B4483F800230AE03B686D
:102F1C00DAB20849FB7903F00F03043B1201D2B279
:102F2C000B441A7600BF0C37BD4680BC704700BFFF
:102F3C0000E100E000ED00E080B489B000AFF86083
:102F4C00B9607A60FB6803F00703FB61FB69C3F1AE
:102F5C000703042B28BF0423BB61FB690433062B36
:102F6C0002D9FB69033B00E000237B614FF0FF3289
:102F7C00BB6902FA03F3DA43BB681A407B699A40D7
:102F8C004FF0FF317B6901FA03F3D9437B680B40A7
:102F9C00134318462437BD4680BC704780B582B0B9
:102FAC0000AF78607B68013BB3F1807F01D30123D4
:102FBC000FE00A4A7B68013B53600F214FF0FF3052
:102FCC00FFF790FF054B00229A60044B07221A6012
:102FDC00002318460837BD4680BD00BF10E000E056
:102FEC0080B582B000AF78607868FFF709FF00BF4A
:102FFC000837BD4680BD80B586B000AF0346B960CA
:10300C007A60FB7300237B61FFF71EFF78617A689F
:10301C00B9687869FFF790FF024697F90F301146AF
:10302C001846FFF75FFF00BF1837BD4680BD80B55F
:10303C0082B000AF0346FB7197F907301846FFF7D3
:10304C0011FF00BF0837BD4680BD80B582B000AF10
:10305C000346FB7197F907301846FFF71FFF00BFB7
:10306C000837BD4680BD80B582B000AF7860786807
:10307C00FFF794FF034618460837BD4680BD000095
:10308C0080B485B000AF78600023FB607B68002BB8
:10309C0001D1012343E07B681B681A46224B134481
:1030AC00224AA2FB03231B099A007B681A647B68E3
:1030BC001F4ADA637B68022283F821207B681B6835
:1030CC001B68FB60FB6823F47F5323F03003FB6029
:1030DC007B685A687B689B681A437B68DB681A4379
:1030EC007B681B691A437B685B691A437B689B6925
:1030FC001A437B68DB691343FA681343FB607B68F4
:10310C001B68FA681A607B6800229A637B6801224C
:10311C0083F821207B68002283F8202000231846A6
:10312C001437BD4680BC7047F8FFFDBFCDCCCCCC6E
:10313C000000024080B586B000AFF860B9607A60DC
:10314C003B600023FB75FB6893F82030012B01D109
:10315C0002234BE0FB68012283F82020FB6893F8E4
:10316C002130DBB2012B3AD1FB68022283F82120FB
:10317C00FB6800229A63FB681B681A68FB681B6873
:10318C0022F001021A603B687A68B968F86800F0AE
:10319C00EBF9FB68DB6A002B08D0FB681B681A682C
:1031AC00FB681B6842F00E021A600FE0FB681B689C
:1031BC001A68FB681B6822F004021A60FB681B6823
:1031CC001A68FB681B6842F00A021A60FB681B68ED
:1031DC001A68FB681B6842F001021A6005E0FB6884
:1031EC00002283F820200223FB75FB7D184618373C
:1031FC00BD4680BD80B485B000AF78600023FB7302
:10320C007B6893F82130DBB2022B08D07B68042258
:10321C009A637B68002283F82020012320E07B68DE
:10322C001B681A687B681B6822F00E021A607B68A8
:10323C001B681A687B681B6822F001021A607B68A5
:10324C001A6C7B68DB6B012101FA02F25A607B6815
:10325C00012283F821207B68002283F82020FB7B4D
:10326C0018461437BD4680BC7047000080B584B04A
:10327C0000AF78600023FB737B6893F82130DBB2DE
:10328C00022B05D07B6804229A630123FB7351E067
:10329C007B681B681A687B681B6822F00E021A6038
:1032AC007B681B681A687B681B6822F001021A6035
:1032BC007B681B68224A934229D07B681B68214A91
:1032CC00934222D07B681B681F4A93421AD07B68BA
:1032DC001B681E4A934212D07B681B681C4A93429F
:1032EC000AD07B681B681B4A934202D14FF48013AF
:1032FC000EE04FF080730BE04FF4803308E04FF496
:10330C00805305E04FF4807302E0102300E00123AA
:10331C00114A53607B68012283F821207B680022CC
:10332C0083F820207B685B6B002B03D07B685B6B86
:10333C0078689847FB7B18461037BD4680BD00BFA8
:10334C00080002401C0002403000024044000240D1
:10335C00580002406C0002400000024080B584B06E
:10336C0000AF78607B68DB6B1B68FB607B681B685D
:10337C001B68BB607B681B6C04229A40FB68134083
:10338C00002B4FD0BB6803F00403002B4AD07B68A2
:10339C001B681B6803F02003002B07D17B681B689C
:1033AC001A687B681B6822F004021A607B681B6831
:1033BC00664A934229D07B681B68654A934222D0A7
:1033CC007B681B68634A93421AD07B681B68624A0D
:1033DC00934212D07B681B68604A93420AD07B6888
:1033EC001B685F4A934202D14FF480030EE04FF00A
:1033FC0080630BE04FF4802308E04FF4804305E03A
:10340C004FF4806302E0402300E00423554A5360EC
:10341C007B68DB6A002B00F094807B68DB6A786841
:10342C0098478EE07B681B6C02229A40FB68134025
:10343C00002B56D0BB6803F00203002B51D07B68E5
:10344C001B681B6803F02003002B0BD17B681B68E7
:10345C001A687B681B6822F00A021A607B680122DA
:10346C0083F821207B681B68384A934229D07B68FB
:10347C001B68374A934222D07B681B68354A9342BB
:10348C001AD07B681B68344A934212D07B681B6845
:10349C00324A93420AD07B681B68314A934202D16C
:1034AC004FF400130EE04FF000730BE04FF40033B9
:1034BC0008E04FF4005305E04FF4007302E02023C2
:1034CC0000E00223274A53607B68002283F8202007
:1034DC007B689B6A002B34D07B689B6A7868984722
:1034EC002FE07B681B6C08229A40FB681340002B72
:1034FC0028D0BB6803F00803002B23D07B681B6823
:10350C001A687B681B6822F00E021A607B681A6CC2
:10351C007B68DB6B012101FA02F25A607B680122A5
:10352C009A637B68012283F821207B68002283F850
:10353C0020207B681B6B002B04D07B681B6B78688E
:10354C00984700BF00BF1037BD4680BD0800024041
:10355C001C0002403000024044000240580002406F
:10356C006C0002400000024080B485B000AFF860EF
:10357C00B9607A603B60FB681A6CFB68DB6B0121FD
:10358C0001FA02F25A60FB681B683A685A60FB68E1
:10359C005B68102B08D1FB681B687A689A60FB6823
:1035AC001B68BA68DA6007E0FB681B68BA689A6047
:1035BC00FB681B687A68DA6000BF1437BD4680BCB4
:1035CC0070470000F0B587B000AFF860B960C7E98C
:1035DC0000230123FB750023BB7500237B752F4B48
:1035EC001B7E012B01D1022354E02C4B01221A76B5
:1035FC004CF2503000F0B2F80346FB75FB7D002B0B
:10360C0044D1FB68012B02D101237B7507E0FB68D9
:10361C00022B02D102237B7501E004237B7500236E
:10362C00BB752DE0BB7D5A00BB6802EB030CBB7D68
:10363C001901D7E90023C1F12006A1F1200022FADB
:10364C0001F403FA06F6344323FA00F0044323FA98
:10365C0001F5A3B21946604600F064F84CF2503004
:10366C0000F07CF80346FB750D4B1B690C4A23F0EC
:10367C0001031361FB7D002B07D1BB7D0133BB75AF
:10368C00BA7D7B7D9A42CDD300E000BF034B002274
:10369C001A76FB7D18461C37BD46F0BD600A00202B
:1036AC000020024080B483B000AF0023FB710D4BAF
:1036BC001B6903F08003002B0DD00A4B0A4A5A6099
:1036CC00084B0A4A5A60074B1B6903F08003002B16
:1036DC0001D00123FB71FB7918460C37BD4680BC29
:1036EC00704700BF0020024023016745AB89EFCD36
:1036FC0080B400AF054B1B69044A43F0800313618F
:10370C0000231846BD4680BC704700BF0020024015
:10371C0080B400AF024BDB691846BD4680BC7047D5
:10372C00600A002080B483B000AF78600B467B80C9
:10373C00084B0022DA61084B1B69074A43F001036E
:10374C0013617B687A881A8000BF0C37BD4680BC39
:10375C00704700BF600A00200020024080B584B092
:10376C0000AF7860FEF7F4FEF86010E07B68B3F110
:10377C00FF3F0CD07B68002B07D0FEF7E9FE02461A
:10378C00FB68D31A7A689A4201D2032325E0154BC1
:10379C00DB6803F00103002BE8D1124BDB6803F06C
:1037AC002003002B02D00F4B2022DA600D4BDB687C
:1037BC0003F01003002B0BD10A4BDB6903F0010360
:1037CC00002B05D1074BDB6803F00403002B03D05F
:1037DC0000F00AF8012300E0002318461037BD461C
:1037EC0080BD00BF0020024080B483B000AF002336
:1037FC007B60234BDB6803F01003002B09D0214BBB
:10380C00DB6943F002031F4AD3617B6843F010036A
:10381C007B601B4BDB6803F00403002B09D0194BB6
:10382C00DB6943F00103174AD3617B6843F004035F
:10383C007B60134BDB6903F00103002B0BD0114BA6
:10384C00DB6943F004030F4AD3610D4BDB690C4A6F
:10385C0023F00103D3617B6840F20112934206D13D
:10386C00074BDB69064A23F00103D36102E0044AEB
:10387C007B68D36000BF0C37BD4680BC704700BF6F
:10388C0000200240600A002080B584B000AF786050
:10389C0039600123FB730023BB602F4B1B7E012B74
:1038AC0001D1022353E02C4B01221A767B681B6852
:1038BC00022B16D14CF25030FFF750FF0346002B71
:1038CC0041D1012000F04CF84CF25030FFF746FF8C
:1038DC000346FB73214B1B69204A23F0040313613D
:1038EC0031E04CF25030FFF739FF0346002B2AD160
:1038FC003B684FF0FF321A607B689B68BB6019E035
:10390C00B86800F049F84CF25030FFF727FF034637
:10391C00FB73124B1B69114A23F002031361FB7BEF
:10392C00002B03D03B68BA681A600CE0BB6803F547
:10393C008063BB607B68DB689A027B689B6813447E
:10394C00BA689A42DCD3044B00221A76FB7B1846E9
:10395C001037BD4680BD00BF600A00200020024029
:10396C0080B483B000AF7860094B0022DA61094B58
:10397C001B69084A43F004031361064B1B69054A93
:10398C0043F04003136100BF0C37BD4680BC704749
:10399C00600A00200020024080B483B000AF786041
:1039AC000B4B0022DA610B4B1B690A4A43F00203F2
:1039BC001361084A7B685361064B1B69054A43F047
:1039CC004003136100BF0C37BD4680BC704700BF7D
:1039DC00600A00200020024080B48BB000AF7860F9
:1039EC00396000237B6200233B6269E101227B6A20
:1039FC0002FA03F3FB613B681B68FA691340BB6175
:103A0C00BA69FB699A4240F058813B685B689A4AF4
:103A1C0093425ED0984A934275D8984A934258D0B4
:103A2C00964A93426FD8964A934252D0944A934204
:103A3C0069D8944A93424CD0924A934263D8924AA2
:103A4C00934246D0904A93425DD8122B2AD8122B1F
:103A5C0059D801A252F823F0DF3A0008B93A00080D
:103A6C00CB3A00080D3B0008133B0008133B000841
:103A7C00133B0008133B0008133B0008133B0008E2
:103A8C00133B0008133B0008133B0008133B0008D2
:103A9C00133B0008133B0008133B0008C13A000815
:103AAC00D53A0008794A934213D02CE03B68DB6886
:103ABC003B6229E03B68DB6804333B6224E03B68F3
:103ACC00DB6808333B621FE03B68DB680C333B620E
:103ADC001AE03B689B68002B02D104233B6213E085
:103AEC003B689B68012B05D108233B627B68FA6914
:103AFC001A6109E008233B627B68FA695A6103E0AA
:103B0C0000233B6200E000BFBB69FF2B01D87B6840
:103B1C0001E07B6804337B61BB69FF2B02D87B6AB5
:103B2C009B0002E07B6A083B9B003B617B691A6847
:103B3C000F213B6901FA03F3DB431A40396A3B69F5
:103B4C0001FA03F31A437B691A603B685B6803F064
:103B5C008053002B00F0B1804D4B9B694C4A43F0D5
:103B6C00010393614A4B9B6903F00103BB60BB6883
:103B7C00484A7B6A9B08023352F82330FB607B6A0D
:103B8C0003F003039B000F2202FA03F3DB43FA68F2
:103B9C001340FB607B68404A934213D07B683F4ADA
:103BAC0093420DD07B683E4A934207D07B683D4AD6
:103BBC00934201D1032306E0042304E0022302E034
:103BCC00012300E000237A6A02F003029200934082
:103BDC00FA681343FB602F497B6A9B080233FA682F
:103BEC0041F823203B685B6803F48013002B06D05C
:103BFC002D4B9A682C49BB6913438B6006E02A4B0A
:103C0C009A68BB69DB43284913408B603B685B684F
:103C1C0003F40013002B06D0234BDA682249BB694E
:103C2C001343CB6006E0204BDA68BB69DB431E49CB
:103C3C001340CB603B685B6803F40033002B06D069
:103C4C00194B5A681849BB6913434B6006E0164B75
:103C5C005A68BB69DB43144913404B603B685B6893
:103C6C0003F48033002B21D00F4B1A680E49BB692B
:103C7C0013430B6021E000BF000032100000311034
:103C8C000000221000002110000012100000111082
:103C9C00001002400000014000080140000C0140EF
:103CAC000010014000140140000401400B4B1A6845
:103CBC00BB69DB43094913400B607B6A01337B62B0
:103CCC003B681A687B6A22FA03F3002B7FF48EAEF2
:103CDC0000BF00BF2C37BD4680BC704700040140BC
:103CEC0080B485B000AF78600B467B807B689A68A7
:103CFC007B881340002B02D00123FB7301E00023CF
:103D0C00FB73FB7B18461437BD4680BC704780B4F0
:103D1C0083B000AF78600B467B8013467B707B785A
:103D2C00002B03D07A887B681A6103E07B881A0425
:103D3C007B681A6100BF0C37BD4680BC704780B4ED
:103D4C0085B000AF78600B467B807B68DB68FB60DE
:103D5C007A88FB6813401A04FB68D9437B880B40B4
:103D6C001A437B681A6100BF1437BD4680BC70478C
:103D7C0080B582B000AF0346FB80084B5A69FB88C4
:103D8C001340002B06D0054AFB885361FB8818466C
:103D9C00FDF7D2FC00BF0837BD4680BD00040140D2
:103DAC0080B584B000AF78607B68002B01D1012313
:103DBC002BE17B6893F83D30DBB2002B06D17B689E
:103DCC00002283F83C207868FEF702F97B682422F5
:103DDC0083F83D207B681B681A687B681B6822F09F
:103DEC0001021A607B681B681A687B681B6842F4C6
:103DFC0000421A607B681B681A687B681B6822F497
:103E0C0000421A6001F0B6F9F8607B685B68814A81
:103E1C00934207D8FB68804A934294BF0123002346
:103E2C00DBB206E0FB687D4A934294BF012300237A
:103E3C00DBB2002B01D00123E7E0FB68784AA2FB40
:103E4C0003239B0CBB607B681B685B6823F03F0102
:103E5C007B681B68BA680A435A607B681B681B6ADC
:103E6C0023F03F017B685B686A4A934202D8BB68C7
:103E7C00013309E0BB684FF4967202FB03F3694A05
:103E8C00A2FB03239B0901337A6812680B4313626C
:103E9C007B681B68DB6923F44F4222F0FF027B68CE
:103EAC005B685C498B4219D8FB68591E7B685B6860
:103EBC005B00B1FBF3F3591C40F6FC730B40002B79
:103ECC000AD0FB68591E7B685B685B00B1FBF3F39F
:103EDC000133C3F30B0351E004234FE07B689B6871
:103EEC00002B11D1FB68581E7B6859680B465B0090
:103EFC000B44B0FBF3F30133C3F30B03002B0CBFE8
:103F0C0001230023DBB212E0FB68581E7B68596862
:103F1C000B469B000B4499000B44B0FBF3F30133AD
:103F2C00C3F30B03002B0CBF01230023DBB2002BCC
:103F3C0001D0012322E07B689B68002B0ED1FB682B
:103F4C00581E7B6859680B465B000B44B0FBF3F3BF
:103F5C000133C3F30B0343F400430FE0FB68581E1B
:103F6C007B6859680B469B000B4499000B44B0FBD3
:103F7C00F3F30133C3F30B0343F44043796809684B
:103F8C001343CB617B681B681B6823F0C0017B6803
:103F9C00DA697B681B6A1A437B681B680A431A60E0
:103FAC007B681B689B6823F4034323F0FF037A6848
:103FBC0011697A68D26811437A6812680B4393606E
:103FCC007B681B68DB6823F0FF017B685A697B68A0
:103FDC009B691A437B681B680A43DA607B681B6821
:103FEC001A687B681B6842F001021A607B68002229
:103FFC001A647B68202283F83D207B6800221A63B8
:10400C007B68002283F83E20002318461037BD46FB
:10401C0080BD00BFA08601007F841E00FF083D000C
:10402C0083DE1B43D34D621080B588B002AFF860BD
:10403C007A601A460B467B8113463B81FEF788FA61
:10404C007861FB6893F83D30DBB2202B40F0E080C8
:10405C007B690093192301227049F86800F092FAE9
:10406C000346002B01D00223D3E0FB6893F83C30CD
:10407C00012B01D10223CCE0FB68012283F83C2008
:10408C00FB681B681B6803F00103012B07D0FB685E
:10409C001B681A68FB681B6842F001021A60FB6817
:1040AC001B681A68FB681B6822F400621A60FB68C4
:1040BC00212283F83D20FB68102283F83E20FB6808
:1040CC0000221A64FB687A685A62FB683A895A853E
:1040DC00FB685B8D9AB2FB681A85FB68504ADA6202
:1040EC0079897B693A6AF86800F0CAF90346002BB3
:1040FC0001D001238DE000233B61FB681B685B69E9
:10410C003B61FB681B689B693B613B6966E07A69B4
:10411C00396AF86800F050FB0346002B0DD0FB68A1
:10412C001B6C042B07D1FB681B681A68FB681B68A7
:10413C0042F400721A6001236BE0FB685B6A1A7828
:10414C00FB681B681A61FB685B6A5A1CFB685A6245
:10415C00FB685B8D9BB2013B9AB2FB685A85FB688E
:10416C001B8D013B9AB2FB681A85FB681B685B6967
:10417C0003F00403042B1BD1FB681B8D002B17D001
:10418C00FB685B6A1A78FB681B681A61FB685B6AE0
:10419C005A1CFB685A62FB685B8D9BB2013B9AB25E
:1041AC00FB685A85FB681B8D013B9AB2FB681A852C
:1041BC007A69396AF86800F047FB0346002B0DD08A
:1041CC00FB681B6C042B07D1FB681B681A68FB6827
:1041DC001B6842F400721A6001231AE0FB681B8D05
:1041EC00002B94D1FB681B681A68FB681B6842F4AF
:1041FC0000721A60FB68202283F83D20FB680022C5
:10420C0083F83E20FB68002283F83C20002300E06A
:10421C00022318461837BD4680BD00BF02001000AF
:10422C000000FFFF80B58AB002AFF8607A603B6097
:10423C000B467B81FEF78CF9F8610023BB61FB68B0
:10424C0093F83D30DBB2202B40F01181FB690093D9
:10425C00192301228849F86800F094F90346002BD1
:10426C0001D0022304E1FB6893F83C30012B01D10F
:10427C000223FDE0FB68012283F83C20FB681B68ED
:10428C001B6803F00103012B07D0FB681B681A683D
:10429C00FB681B6842F001021A60FB681B681A6815
:1042AC00FB681B6822F400621A60FB68242283F806
:1042BC003D20FB6800221A64FB68704ADA62FB68D6
:1042CC001B681A68FB681B6842F480721A60FB69F1
:1042DC0000933B6800224FF00111F86800F052F98E
:1042EC000346002B0DD0FB681B681B6803F480731E
:1042FC00B3F5807F03D1FB684FF400721A6403237B
:10430C00B6E07B89DBB21A46FB681B6802F0FE0242
:10431C001A61FEF71DF9F861FB681B685B6903F015
:10432C000203022B0CBF01230023DBB2FB75FB68DD
:10433C001B685B6903F48063B3F5806F0CBF0123CA
:10434C000023DBB2BB7525E0FEF702F90246FB69E0
:10435C00D31A3A689A4202D33B68002B03D1FB680C
:10436C00A02283F83D20FB681B685B6903F0020305
:10437C00022B0CBF01230023DBB2FB75FB681B680F
:10438C005B6903F48063B3F5806F0CBF01230023DA
:10439C00DBB2BB75FB6893F83D30DBB2A02B05D0CC
:1043AC00FB7D002B02D1BB7D002BCDD0FB682022E6
:1043BC0083F83D20FB681B685B6903F00203022B4A
:1043CC0029D1FB681B681A68FB681B6842F40072F1
:1043DC001A6000233B61FB681B685B693B61FB68EF
:1043EC001B689B693B613B69FB69009319230122A4
:1043FC002149F86800F0C6F80346002B01D00123D0
:10440C0036E0FB68202283F83D20FB68002283F80D
:10441C003C2000232CE0FB681B681A68FB681B68B7
:10442C0042F400721A60FB681B686FF480625A6178
:10443C00FB690093192301220F49F86800F0A2F8D8
:10444C000346002B01D0012312E0BB690133BB6191
:10445C00BA697B689A42FFF432AFFB68202283F87A
:10446C003D20FB68002283F83C20012300E002235E
:10447C0018462037BD4680BD020010000000FFFF2B
:10448C0080B588B002AFF8607A603B600B467B81E8
:10449C00FB68DB6A7B617B69082B06D07B69012B8F
:1044AC0003D07B6913F5803F08D1FB681B681A6841
:1044BC00FB681B6842F480721A600BE0FB681B6B94
:1044CC00122B07D1FB681B681A68FB681B6842F447
:1044DC0080721A603B6800937B6800224FF00111D8
:1044EC00F86800F04FF80346002B0DD0FB681B68F2
:1044FC001B6803F48073B3F5807F03D1FB684FF422
:10450C0000721A64032335E0FB681B69B3F5804F16
:10451C0008D17B89DBB21A46FB681B6802F0FE02ED
:10452C001A611BE07B89DB11DBB203F00603DBB203
:10453C0063F00F03DAB2FB681B681A613B687A6898
:10454C000E49F86800F098F80346002B01D00123BF
:10455C0010E07B89DAB2FB681B681A613B687A68E9
:10456C000749F86800F088F80346002B01D00123B6
:10457C0000E0002318461837BD4680BD0800010036
:10458C000200010080B584B000AFF860B9603B60F8
:10459C001346FB7148E03B68B3F1FF3F44D0FDF795
:1045AC00D7FF0246BB69D31A3A689A4202D33B68DA
:1045BC00002B39D1BB681B0CDBB2012B0DD1FB6876
:1045CC001B685B69DA43BB6813409BB2002B0CBFC2
:1045DC0001230023DBB21A460CE0FB681B689B69C5
:1045EC00DA43BB6813409BB2002B0CBF01230023A2
:1045FC00DBB21A46FB799A4216D1FB6800221A6389
:10460C00FB68202283F83D20FB68002283F83E20C3
:10461C00FB681B6C43F02002FB681A64FB680022E9
:10462C0083F83C20012323E0BB681B0CDBB2012B7D
:10463C000DD1FB681B685B69DA43BB6813409BB206
:10464C00002B0CBF01230023DBB21A460CE0FB68E5
:10465C001B689B69DA43BB6813409BB2002B0CBFF1
:10466C0001230023DBB21A46FB799A4293D0002334
:10467C0018461037BD4680BD80B584B000AFF860D9
:10468C00B9607A603B6071E0FB681B685B6903F49E
:10469C008063B3F5806F23D1FB681B681A68FB68D5
:1046AC001B6842F400721A60FB681B686FF480622E
:1046BC005A61FB6800221A63FB68202283F83D20B4
:1046CC00FB68002283F83E20FB681B6C43F004025D
:1046DC00FB681A64FB68002283F83C20012367E026
:1046EC007B68B3F1FF3F41D0FDF732FF02463B68D8
:1046FC00D31A7A689A4202D37B68002B36D1BB68F6
:10470C001B0CDBB2012B0CD1FB681B685B69DA4319
:10471C00BB6813409BB2002B14BF01230023DBB2F8
:10472C000BE0FB681B689B69DA43BB6813409BB2C8
:10473C00002B14BF01230023DBB2002B16D0FB6827
:10474C0000221A63FB68202283F83D20FB680022BC
:10475C0083F83E20FB681B6C43F02002FB681A6454
:10476C00FB68002283F83C20012321E0BB681B0C72
:10477C00DBB2012B0CD1FB681B685B69DA43BB68AD
:10478C0013409BB2002B14BF01230023DBB20BE0C0
:10479C00FB681B689B69DA43BB6813409BB2002B18
:1047AC0014BF01230023DBB2002B7FF46DAF002379
:1047BC0018461037BD4680BD80B584B000AFF86098
:1047CC00B9607A6034E0F86800F086F80346002B94
:1047DC0001D0012334E0BB68B3F1FF3F28D0FDF7D3
:1047EC00B7FE02467B68D31ABA689A4202D3BB68FA
:1047FC00002B1DD1FB681B685B6903F08003802BC9
:10480C0016D0FB6800221A63FB68202283F83D2037
:10481C00FB68002283F83E20FB681B6C43F02002EF
:10482C00FB681A64FB68002283F83C20012307E034
:10483C00FB681B685B6903F08003802BC3D10023EA
:10484C0018461037BD4680BD80B584B000AFF86007
:10485C00B9607A6034E0F86800F03EF80346002B4B
:10486C0001D0012334E0BB68B3F1FF3F28D0FDF742
:10487C006FFE02467B68D31ABA689A4202D3BB68B1
:10488C00002B1DD1FB681B685B6903F00403042B30
:10489C0016D0FB6800221A63FB68202283F83D20A7
:1048AC00FB68002283F83E20FB681B6C43F020025F
:1048BC00FB681A64FB68002283F83C20012307E0A4
:1048CC00FB681B685B6903F00403042BC3D1002352
:1048DC0018461037BD4680BD80B483B000AF7860F9
:1048EC007B681B685B6903F48063B3F5806F1BD135
:1048FC007B681B686FF480625A617B6800221A63C4
:10490C007B68202283F83D207B68002283F83E20C0
:10491C007B681B6C43F004027B681A647B68002282
:10492C0083F83C20012300E0002318460C37BD46D9
:10493C0080BC704780B400AF20BF00BF00BFBD4635
:10494C0080BC704780B483B000AF78600B46FB70BE
:10495C00094B1B69084A23F004031361FB78012BF4
:10496C0001D130BF02E040BF20BF20BF00BF0C37D9
:10497C00BD4680BC704700BF00ED00E080B582B042
:10498C0000AF78600B46FB70134B1B68124A23F088
:10499C0002031360104B1B6823F001020E497B6865
:1049AC0013430B600D4B1B690C4A43F0040313615A
:1049BC00FB78012B01D130BF04E040BFFFF7BAFFF9
:1049CC00FFF7B8FF054B1B69044A23F0040313617E
:1049DC0000BF0837BD4680BD0070004000ED00E010
:1049EC0080B586B000AF78607B68002B01D10123C5
:1049FC0072E27B681B6803F00103002B00F08780D8
:104A0C00924B5B6803F00C03042B0CD08F4B5B6850
:104A1C0003F00C03082B12D18C4B5B6803F480332E
:104A2C00B3F5803F0BD1894B1B6803F40033002B8B
:104A3C006CD07B685B68002B68D101234CE27B68EF
:104A4C005B68B3F5803F06D1804B1B687F4A43F40B
:104A5C00803313602EE07B685B68002B0CD17B4BA2
:104A6C001B687A4A23F480331360784B1B68774AAF
:104A7C0023F4802313601DE07B685B68B3F5A02FE3
:104A8C000CD1724B1B68714A43F4802313606F4B3B
:104A9C001B686E4A43F4803313600BE06B4B1B684E
:104AAC006A4A23F480331360684B1B68674A23F40B
:104ABC00802313607B685B68002B13D0FDF748FDE7
:104ACC00386108E0FDF744FD02463B69D31A642BBC
:104ADC0001D9032300E25D4B1B6803F40033002B68
:104AEC00F0D014E0FDF734FD386108E0FDF730FD3F
:104AFC0002463B69D31A642B01D90323ECE1534BD7
:104B0C001B6803F40033002BF0D100E000BF7B687E
:104B1C001B6803F00203002B63D04C4B5B6803F063
:104B2C000C03002B0BD0494B5B6803F00C03082BD8
:104B3C001CD1464B5B6803F48033002B16D1434BDE
:104B4C001B6803F00203002B05D07B681B69012B4B
:104B5C0001D00123C0E13D4B1B6823F0F8027B68B8
:104B6C005B69DB00394913430B603AE07B681B69D6
:104B7C00002B20D0364B01221A60FDF7E9FC38617E
:104B8C0008E0FDF7E5FC02463B69D31A022B01D97C
:104B9C000323A1E12D4B1B6803F00203002BF0D083
:104BAC002A4B1B6823F0F8027B685B69DB00274902
:104BBC0013430B6015E0264B00221A60FDF7C8FC6E
:104BCC00386108E0FDF7C4FC02463B69D31A022B9E
:104BDC0001D9032380E11D4B1B6803F00203002B5A
:104BEC00F0D17B681B6803F00803002B3AD07B687C
:104BFC009B69002B19D0174B01221A60FDF7A8FCFA
:104C0C00386108E0FDF7A4FC02463B69D31A022B7D
:104C1C0001D9032360E10D4B5B6A03F00203002B07
:104C2C00F0D0012000F0CEFA1CE00A4B00221A60F2
:104C3C00FDF78EFC38610FE0FDF78AFC02463B69FC
:104C4C00D31A022B08D9032346E100BF00100240FF
:104C5C000000424280044242924B5B6A03F0020322
:104C6C00002BE9D17B681B6803F00403002B00F0D8
:104C7C00A6800023FB758B4BDB6903F08053002B64
:104C8C000DD1884BDB69874A43F08053D361854B48
:104C9C00DB6903F08053BB60BB680123FB75824B5F
:104CAC001B6803F48073002B18D17F4B1B687E4A62
:104CBC0043F480731360FDF74BFC386108E0FDF79B
:104CCC0047FC02463B69D31A642B01D9032303E149
:104CDC00754B1B6803F48073002BF0D07B68DB688A
:104CEC00012B06D16F4B1B6A6E4A43F00103136212
:104CFC002DE07B68DB68002B0CD16A4B1B6A694A80
:104D0C0023F001031362674B1B6A664A23F004030A
:104D1C0013621CE07B68DB68052B0CD1614B1B6AB2
:104D2C00604A43F0040313625E4B1B6A5D4A43F016
:104D3C00010313620BE05B4B1B6A5A4A23F001031D
:104D4C001362584B1B6A574A23F0040313627B68A7
:104D5C00DB68002B15D0FDF7FBFB38610AE0FDF793
:104D6C00F7FB02463B69D31A41F28832934201D9D0
:104D7C000323B1E04B4B1B6A03F00203002BEED074
:104D8C0014E0FDF7E5FB38610AE0FDF7E1FB0246B4
:104D9C003B69D31A41F28832934201D903239BE039
:104DAC00404B1B6A03F00203002BEED1FB7D012B61
:104DBC0005D13C4BDB693B4A23F08053D3617B68C4
:104DCC00DB69002B00F08780364B5B6803F00C032B
:104DDC00082B61D07B68DB69022B46D1334B002258
:104DEC001A60FDF7B5FB386108E0FDF7B1FB024630
:104DFC003B69D31A022B01D903236DE0294B1B68A5
:104E0C0003F00073002BF0D17B681B6AB3F5803F75
:104E1C0008D1244B5B6823F400327B689B682149E2
:104E2C0013434B601F4B5B6823F474127B68196A45
:104E3C007B685B6A0B431B4913434B601B4B012282
:104E4C001A60FDF785FB386108E0FDF781FB02462F
:104E5C003B69D31A022B01D903233DE0114B1B688C
:104E6C0003F00073002BF0D035E0104B00221A60D9
:104E7C00FDF76EFB386108E0FDF76AFB02463B6903
:104E8C00D31A022B01D9032326E0064B1B6803F02F
:104E9C000073002BF0D11EE07B68DB69012B07D17E
:104EAC00012319E0001002400070004060004242F3
:104EBC000B4B5B68FB60FB6803F480327B681B6AFE
:104ECC009A4206D1FB6803F470127B685B6A9A42C3
:104EDC0001D0012300E0002318461837BD4680BDE1
:104EEC000010024080B584B000AF786039607B68F8
:104EFC00002B01D10123D0E06A4B1B6803F00703A0
:104F0C003A689A4210D9674B1B6823F0070265492F
:104F1C003B6813430B60634B1B6803F007033A6851
:104F2C009A4201D00123B8E07B681B6803F00203AE
:104F3C00002B20D07B681B6803F00403002B05D0EA
:104F4C00594B5B68584A43F4E06353607B681B68B9
:104F5C0003F00803002B05D0534B5B68524A43F413
:104F6C0060535360504B5B6823F0F0027B689B6886
:104F7C004D4913434B607B681B6803F00103002B06
:104F8C0040D07B685B68012B07D1474B1B6803F44F
:104F9C000033002B15D101237FE07B685B68022B6B
:104FAC0007D1414B1B6803F00073002B09D101237F
:104FBC0073E03D4B1B6803F00203002B01D101236E
:104FCC006BE0394B5B6823F003027B685B68364906
:104FDC0013434B60FDF7BCFAF8600AE0FDF7B8FA32
:104FEC000246FB68D31A41F28832934201D903235B
:104FFC0053E02D4B5B6803F00C027B685B689B00F5
:10500C009A42EBD1274B1B6803F007033A689A428C
:10501C0010D2244B1B6823F0070222493B68134330
:10502C000B60204B1B6803F007033A689A4201D0CF
:10503C00012332E07B681B6803F00403002B08D0CB
:10504C00194B5B6823F4E0627B68DB6816491343F9
:10505C004B607B681B6803F00803002B09D0124BD4
:10506C005B6823F460527B681B69DB000E491343B9
:10507C004B6000F021F802460B4B5B681B0903F0F8
:10508C000F030A49CB5C22FA03F3094A1360094B5C
:10509C001B681846FDF71AFA002318461037BD4650
:1050AC0080BD00BF00200240001002401494000894
:1050BC00180300201C03002080B487B000AF00232D
:1050CC00FB600023BB6000237B6100237B6000231B
:1050DC003B611E4B5B68FB60FB6803F00C03042B0D
:1050EC0002D0082B03D027E0194B3B6127E0FB686B
:1050FC009B0C03F00F03174AD35C7B60FB6803F433
:10510C008033002B10D0114B5B685B0C03F0010358
:10511C00114AD35CBB607B680D4A03FB02F2BB688F
:10512C00B2FBF3F37B6104E07B680C4A02FB03F3F4
:10513C007B617B693B6102E0054B3B6100BF3B69D6
:10514C0018461C37BD4680BC704700BF001002409B
:10515C0000127A002C9400083C94000800093D00D1
:10516C0080B400AF024B1B681846BD4680BC70472C
:10517C001803002080B500AFFFF7F2FF0246054B85
:10518C005B681B0A03F007030349CB5C22FA03F3A9
:10519C00184680BD001002402494000880B500AF72
:1051AC00FFF7DEFF0246054B5B68DB0A03F00703E3
:1051BC000349CB5C22FA03F3184680BD0010024071
:1051CC002494000880B485B000AF78600A4B1B684B
:1051DC000A4AA2FB03235B0A7A6802FB03F3FB6017
:1051EC0000BFFB685A1EFA60002BF9D100BF00BF4C
:1051FC001437BD4680BC704718030020D34D621095
:10520C0080B586B000AF786000233B610023FB6063
:10521C007B681B6803F00103002B7DD00023FB751A
:10522C004F4BDB6903F08053002B0DD14C4BDB69EA
:10523C004B4A43F08053D361494BDB6903F08053F5
:10524C00BB60BB680123FB75464B1B6803F4807382
:10525C00002B18D1434B1B68424A43F480731360F4
:10526C00FDF776F9386108E0FDF772F902463B6903
:10527C00D31A642B01D903236DE03A4B1B6803F45A
:10528C008073002BF0D0364B1B6A03F44073FB6029
:10529C00FB68002B2ED07B685B6803F44073FA68C4
:1052AC009A4227D02E4B1B6A23F44073FB602E4B83
:1052BC0001221A602C4B00221A60294AFB681362E7
:1052CC00FB6803F00103002B14D0FDF741F93861A2
:1052DC000AE0FDF73DF902463B69D31A41F28832E8
:1052EC00934201D9032336E01D4B1B6A03F00203E2
:1052FC00002BEED01A4B1B6A23F440727B685B6860
:10530C00174913430B62FB7D012B05D1144BDB6951
:10531C00134A23F08053D3617B681B6803F00203AC
:10532C00002B08D00E4B5B6823F440427B689B68D3
:10533C000B4913434B607B681B6803F01003002B75
:10534C0008D0074B5B6823F480027B68DB68044958
:10535C0013434B60002318461837BD4680BD00BF71
:10536C0000100240007000404004424280B582B000
:10537C0000AF78607B68002B01D1012341E07B6892
:10538C0093F83D30DBB2002B06D17B68002283F80A
:10539C003C207868FCF75AFE7B68022283F83D209B
:1053AC007B681A687B6804331946104600F0A2FA31
:1053BC007B68012283F846207B68012283F83E201B
:1053CC007B68012283F83F207B68012283F8402010
:1053DC007B68012283F841207B68012283F84220FC
:1053EC007B68012283F843207B68012283F84420E8
:1053FC007B68012283F845207B68012283F83D20DD
:10540C00002318460837BD4680BD000080B485B027
:10541C0000AF78607B6893F83D30DBB2012B01D094
:10542C0001233AE07B68022283F83D207B681B68ED
:10543C00DA687B681B6842F00102DA607B681B68E3
:10544C00184A93420ED07B681B68B3F1804F09D089
:10545C007B681B68144A934204D07B681B68134A10
:10546C00934211D17B681B689B6803F00703FB60B8
:10547C00FB68062B10D07B681B681A687B681B685E
:10548C0042F001021A6007E07B681B681A687B68AF
:10549C001B6842F001021A60002318461437BD46FF
:1054AC0080BC7047002C0140000400400008004004
:1054BC0080B483B000AF78607B681B68DA687B6867
:1054CC001B6822F00102DA607B681B681A6A41F2E1
:1054DC0011131340002B0FD17B681B681A6A40F222
:1054EC0044431340002B07D17B681B681A687B6808
:1054FC001B6822F001021A607B68012283F83D20B0
:10550C00002318460C37BD4680BC704780B582B06E
:10551C0000AF78607B681B681B6903F00203022BE9
:10552C0022D17B681B68DB6803F00203022B1BD1C2
:10553C007B681B686FF002021A617B6801221A7784
:10554C007B681B689B6903F00303002B03D078680E
:10555C0000F0B4F905E0786800F0A7F9786800F07D
:10556C00B6F97B6800221A777B681B681B6903F00D
:10557C000403042B22D17B681B68DB6803F0040353
:10558C00042B1BD17B681B686FF004021A617B68CB
:10559C0002221A777B681B689B6903F44073002B0B
:1055AC0003D0786800F08AF905E0786800F07DF99E
:1055BC00786800F08CF97B6800221A777B681B688E
:1055CC001B6903F00803082B22D17B681B68DB687E
:1055DC0003F00803082B1BD17B681B686FF00802D3
:1055EC001A617B6804221A777B681B68DB6903F0FD
:1055FC000303002B03D0786800F060F905E07868AD
:10560C0000F053F9786800F062F97B6800221A7791
:10561C007B681B681B6903F01003102B22D17B687D
:10562C001B68DB6803F01003102B1BD17B681B6815
:10563C006FF010021A617B6808221A777B681B686E
:10564C00DB6903F44073002B03D0786800F036F963
:10565C0005E0786800F029F9786800F038F97B6883
:10566C0000221A777B681B681B6903F00103012B6E
:10567C000ED17B681B68DB6803F00103012B07D19B
:10568C007B681B686FF001021A617868FCF7F8F808
:10569C007B681B681B6903F08003802B0ED17B6831
:1056AC001B68DB6803F08003802B07D17B681B68C9
:1056BC006FF080021A61786800F07BFA7B681B68D7
:1056CC001B6903F04003402B0ED17B681B68DB6821
:1056DC0003F04003402B07D17B681B686FF040023E
:1056EC001A61786800F0FCF87B681B681B6903F092
:1056FC002003202B0ED17B681B68DB6803F0200392
:10570C00202B07D17B681B686FF020021A61786828
:10571C0000F046FA00BF0837BD4680BD80B584B0A6
:10572C0000AF786039600023FB737B6893F83C30E2
:10573C00012B01D10223B4E07B68012283F83C20C9
:10574C007B68022283F83D207B681B689B68BB60EA
:10575C00BB6823F07703BB60BB6823F47F43BB605B
:10576C007B681B68BA689A603B681B68B3F5005F7E
:10577C003ED0B3F5005F00F28780B3F5805F00F098
:10578C008680B3F5805F7FD8702B1AD0702B7BD8B6
:10579C00602B50D0602B77D8502B3CD0502B73D82B
:1057AC00402B58D0402B6FD8302B64D0302B6BD87B
:1057BC00202B60D0202B67D8002B5CD0102B5AD01C
:1057CC0062E07B6818683B6899683B685A683B687C
:1057DC00DB6800F068F97B681B689B68BB60BB6882
:1057EC0043F07703BB607B681B68BA689A604FE034
:1057FC007B6818683B6899683B685A683B68DB684B
:10580C0000F051F97B681B689A687B681B6842F44E
:10581C0080429A603CE07B6818683B6859683B683A
:10582C00DB681A4600F0C8F87B681B6850211846E4
:10583C0000F01FF92CE07B6818683B6859683B68DE
:10584C00DB681A4600F0E6F87B681B686021184696
:10585C0000F00FF91CE07B6818683B6859683B68DE
:10586C00DB681A4600F0A8F87B681B6840211846D4
:10587C0000F0FFF80CE07B681A683B681B6819465F
:10588C00104600F0F6F803E00123FB7300E000BFC4
:10589C007B68012283F83D207B68002283F83C2042
:1058AC00FB7B18461037BD4680BD80B483B000AF7B
:1058BC00786000BF0C37BD4680BC704780B483B0A5
:1058CC0000AF786000BF0C37BD4680BC704780B419
:1058DC0083B000AF786000BF0C37BD4680BC70470A
:1058EC0080B483B000AF786000BF0C37BD4680BC7D
:1058FC007047000080B485B000AF786039607B6879
:10590C001B68FB607B68294A93420BD07B68B3F120
:10591C00804F07D07B68264A934203D07B68254A88
:10592C00934208D1FB6823F07003FB603B685B6813
:10593C00FA681343FB607B681C4A93420BD07B686C
:10594C00B3F1804F07D07B68194A934203D07B6830
:10595C00184A934208D1FB6823F44073FB603B6800
:10596C00DB68FA681343FB60FB6823F080023B683A
:10597C005B691343FB607B68FA681A603B689A6842
:10598C007B68DA623B681A687B689A627B68074AB4
:10599C00934203D13B681A697B681A637B680122C6
:1059AC005A6100BF1437BD4680BC7047002C0140C3
:1059BC00000400400008004080B487B000AFF860DD
:1059CC00B9607A60FB681B6A7B61FB681B6A23F019
:1059DC000102FB681A62FB689B693B613B6923F01F
:1059EC00F0033B617B681B013A6913433B617B69A4
:1059FC0023F00A037B617A69BB6813437B61FB6804
:105A0C003A699A61FB687A691A6200BF1C37BD4615
:105A1C0080BC704780B487B000AFF860B9607A6022
:105A2C00FB681B6A7B61FB681B6A23F01002FB6836
:105A3C001A62FB689B693B613B6923F470433B61D1
:105A4C007B681B033A6913433B617B6923F0A0031A
:105A5C007B61BB681B017A6913437B61FB683A6904
:105A6C009A61FB687A691A6200BF1C37BD4680BC1C
:105A7C00704780B485B000AF786039607B689B68F4
:105A8C00FB60FB6823F07003FB603A68FB68134310
:105A9C0043F00703FB607B68FA689A6000BF143719
:105AAC00BD4680BC704780B487B000AFF860B96069
:105ABC007A603B60FB689B687B617B6923F47F4366
:105ACC007B613B681A027B681A43BB6813437A6993
